:020000040000fa
:080000000001040000000000f3
:020000040000fa
:10020000ef54220000792200000188000000000065
:100210000c00070080cc290001002000110007001d
:10022000000020000000e000020032000000020098
:100230000000000092c30200000000000040da004d
:100240000000fe004440a900000020000000e00083
:100250000300320000002000a00188004440a800f4
:100260000000060091018800800078000000eb008b
:1002700015003700e280400032a0b4009101ba00be
:10028000e280400032a0b4009102ba00e280400057
:1002900032a0b4000002eb00472bde00f507b200ed
:1002a000602ce10004003a000059eb008301e900f2
:1002b000fdff3e00040037006128e100010032002c
:1002c0000082eb00040007001101ba000200e00008
:1002d000e8ff3a00000006003159ba008301e90046
:1002e0000c0032002159ba008301e90008003200f5
:1002f0000400e00003003a00e280400032a0b400b5
:10030000f5ff370011d9ba008301e900faff3a007e
:100310008100e800e180400032a0b4000000060047
:100320006eb3040000000000889fbe00e30440009c
:100330000900a100808f54004a003600e38f54006a
:1003400001003e0049002000522881000200e00028
:1003500002003200820078000c003700c1502200f9
:1003600003003700908f5400230036008080e8009f
:10037000110078000000e000faff3a000f0037009b
:10038000908f54001c0036008080e8001100780037
:100390000000e000faff3a0012017800c15022008c
:1003a00003003700908f5400130036008080e8006f
:1003b00011007800820f5000faff3a0048288100af
:1003c000890f54000100310009047800080078000a
:1003d0006d0007000000e00004003a00890f54009f
:1003e000200032000804d100f5ff3700081878001b
:1003f00031000700d4ff3700110178009201780026
:1004000064805100890f50000300310012009000f9
:100410008008780007003700090041008008780054
:1004200092019000130098001100780012881400c7
:1004300009097800910078000100e0000500320011
:10044000110090000000e000020032000180e8008e
:10045000010037000000eb00502889000280e8000e
:10046000010037000000eb004f04be000000060052
:1004700000047800060037008200410080288100d7
:10048000e10078000200e800702889000100010006
:100490007228810090288100800f5100f6ff3900fa
:1004a000004822008028890020022000902889002e
:1004b000080078003b0007000000e0003100320037
:1004c0008080e90091027800e38f52002d00360011
:1004d0000508a3002b003a00622881000200e0001a
:1004e00002003200828f50000400310002087800c0
:1004f00061288900160037000301780092019000fe
:100500000300e00002003200818f5100faff390041
:100510001202780004004100808f50001900390059
:10052000810f500003003a00050942008200780064
:10053000070037000300e0000300320005804000a0
:10054000808f51000f00390093009800110198002e
:10055000110190000200e0000a003200118040000a
:10056000820f500007003a00a05022000008eb0064
:1005700011009000110178009008410010009000d7
:1005800090009800000006000000e0000300340026
:100590000c000700e10f400001003a000000eb00f2
:1005a000000006000c02e20004003d000f42ab0018
:1005b000020032000f02ab00feff32000040da0002
:1005c000feff3700889fbe0080047800d02881009d
:1005d0000000e00003003a00100007000000e00007
:1005e0000a003500d02881000900e00002003a002e
:1005f000000478000600370000047800090040007d
:10060000060007000000e00001003d000084eb0050
:10061000080078004f04be0000000600800078004b
:100620000000e00004003a00c0512200d0288900f8
:1006300001017800060037000081eb00e054220041
:10064000808f500002003e00d12889000001eb009d
:100650000200780000000600839f68000100e000af
:1006600002003d0060001000e08018000300e00080
:1006700002003d0060011100e08119003b0107000c
:100680004f00e00002003b0060001000e080180016
:1006900000000600889fbe008a9fbe00010578000a
:1006a0000100e0000400350008003c000000e0000c
:1006b000200032000500370060001000e0801800c4
:1006c00002003b0001f02c001a0037000004be00bd
:1006d0006011b8006b0920000982cf0002003900c8
:1006e0000882cf000441b000694252000e0032007f
:1006f00008003b0082817100610164008904d1001f
:100700000884d3008b05e8000442e800f9ff3a00b2
:10071000050037000804440089844c008b05e9007b
:100720000442e900fbff3a00200107000af0a7009d
:1007300001f0a0004f05be004f04be0000000600ff
:10074000889fbe008a9fbe008c1f78000004be00f8
:100750003c0107000478a30026003a006120e10074
:100760002500320009f8a30025003a006420e100ca
:1007700021003200f507b1000508a3000200320095
:1007800000004000818048006044b8000310200051
:10079000020020000000400081804800080544005d
:1007a00089854c000a0541008b8549000a055000e7
:1007b0008b855800030033000a00be000204740059
:1007c000838474008301d1000281d300830f710000
:1007d000f0ff3a008904d1000884d3006001490089
:1007e00082017800c1adde00fb07b000ef0007001a
:1007f000320137000960a0000800be002f01370059
:1008000012022000a2428800f0ff2f00f1ff270013
:100810002a013700889fbe008a9fbe008c1f780087
:100820002d0107001002200002003b00a0428800ba
:10083000190137008a0062006408e10002003a00f2
:10084000a0428800210137006108e100fcff32006e
:100850000800be00030478002701070001f0a10092
:100860006701070008f0a600040037000001be0081
:1008700091042400b0fd20003700070009f0a70014
:1008800001f0a2000d013700889fbe008a9fbe00c4
:100890008c1f780010010700ff00330003866c00f6
:1008a0006450e100240032006420e100270032009f
:1008b0006150e100220032006120e100210032009d
:1008c0008b854200eb07b1000134b800003ab80054
:1008d0000804420089844a00013ab8000030b80098
:1008e0008880400009014a000400330000004000f5
:1008f00081804800020149008b05e900c909dd003b
:10090000830170000100320013002000c814de00d3
:100910004814dd004709de001200b200c808de00fe
:1009200008847000a100070001f0a1000cf0a700ee
:1009300001f0a000e10037006120e100e300320097
:100940000801be000200be00f7ff37006150e10061
:10095000fcff3a00dd00370003f0a200889fbe00d4
:100960008a9fbe008c1f7800db000700ca0033009e
:100970006450e1004f0032006420e1005200320078
:1009800003826c0007003b000905d0000306d0007d
:10099000820f54000c065d00020039000200320094
:1009a00089017800030678008582550004003d0027
:1009b0000003fd008103fd008502ea008b854200f3
:1009c000840f720002003b0060001000e0801800fd
:1009d0006011b8000005eb007a28e1000a00390038
:1009e00006007800c75ddd00f707b200878075005c
:1009f0002d003700828171000a01780061056000d6
:100a00008180d1000080d3008502e900f9ff3b001e
:100a1000060440008784480002003b006004140084
:100a2000e0841c000988a300070032008a8171005d
:100a300082817100610164008904d1000884d300bf
:100a40008b05e800170037000978a30013003a006f
:100a50000b00e000130034008b05e900080444009b
:100a600089844c000a4474000978a3000d003a0000
:100a70000b00e000070034008b05e9000804440087
:100a800089844c0001003a000b0020000978a30083
:100a9000f7ff32000001eb00020037008281710095
:100aa0000a017800410007000cf0a70001f0a00047
:100ab000820037006420e10002003a00838f6c005e
:100ac000820033000801be000200be007b00370038
:100ad000140020002f0137000001be00590007005c
:100ae0000470a70003f0a1006509b10016003200f0
:100af0000d0035006828e10006003500f0ff2f00ea
:100b0000f1ff27000300e00013003b000100280074
:100b10000000050000004000818048008502e900d7
:100b2000fcff3a0008003700f88f420002003c004a
:100b30008000eb00000005008100d1000080d300a0
:100b40008502e800fcff3a000300e00002003b00e1
:100b500060001000e080180000000600f4ff2f0085
:100b60000c013700040020000a0137006022b800a1
:100b7000060220000000d0008180d2000482d20052
:100b80008582d2000000a0000202520083825a0037
:100b9000030031000202420083824a000000a100eb
:100ba0000603e900f3ff3a00000006008100200080
:100bb000618055000b003d000b00200061fe2f00fe
:100bc0000100e1001d0034008281710061016400b8
:100bd0008904d1000884d3000000e800faff3a003d
:100be00071002000610064000300700002006000da
:100bf0000900320061044400e0844c000988a5002b
:100c0000050032008b05e8006808e10002003a00a8
:100c10008904d1000884d300f20f20000258e100bb
:100c200005003d00c75ddd00f907b2008980750051
:100c300008007800000006000bf827008b00780001
:100c400000000500c70ade00f107b200f50fb20090
:100c500008003200e1cf4200020032000170a00023
:100c600024000500810f7000010032000408050017
:100c700044000500810f700002003a0014000500d6
:100c80008502e9000000400081c04800fcff3b00f5
:100c90000170a000240005000200be006450e100c5
:100ca000050036006420e100020036000968a30058
:100cb00001003a000800be000160a0004f06780065
:100cc0004f05be004f04be0000000600f0ff2f00dd
:100cd000f1ff2700f9ff37000004be00d9ff07002d
:100ce0000003be000405be000200be00d5ff0700e1
:100cf000844f750000000600889fbe008a9fbe00da
:100d00008c1f7800f4ff0700e3ff330003866c00bc
:100d10006450e1002e0032006420e1003300320014
:100d20006150e1002f0032006120e100310032000b
:100d300085855500eb07b00009002000080420005d
:100d4000050037000804440089844c000a00310083
:100d50000603430087834b000001530081815b0041
:100d6000f8ff33000203be000800a000080444009e
:100d700089844c00f6ff3900c639dd008301730019
:100d800001003200130020008904d1000884d30040
:100d90000998a300050032000800a7000300a00086
:100da0008904d1000884d3008b05e8008904d100b0
:100db0000884d3000001eb000281d2007bff070012
:100dc00001f0a1000cf0a70001f0a000bbff37006c
:100dd0006420e100bdff32000801be000200be0039
:100de000f7ff37006120e100b8ff32006000b80073
:100df000f3ff37000000200001f82700f0ff370064
:100e0000889fbe008a9fbe008c9fbe000004be006b
:100e10008cff07000800be00890678006420e1000e
:100e200008003900040032000160a0001202200016
:100e3000a24288005300370091fc2300b0fd20003f
:100e40004e0037000006eb0009f0a10003f8230074
:100e5000020020000800be001dff0700060034004d
:100e600001f82300000020000801be00a2ff0700d7
:100e70000004be002c0020000800be0093e8230000
:100e8000320a230012ff0700120034000801be00de
:100e9000d1fd2300703d2b00b0fe07000005be0011
:100ea000b3f32300f27a26000800be0076fe0700a6
:100eb00003f8230002002000a7fe07000801be007f
:100ec000a6fe07000a01be008bff07000004be005b
:100ed0000c06e8000800be0001f0a100020020009e
:100ee00003982300fafe07000800be001600350034
:100ef0000801be0064fe07000005be0032cd2c00d4
:100f000043fb230095fe0700809fbe001269280066
:100f100003d52b000a00be005bfe0700620f210014
:100f200013ef2b008dfe07000a01be0056fe0700de
:100f30004f01be0070ff07000801be0052fe07000f
:100f40000801be0085fe07000c00e0000b00320027
:100f50000c10a70001f0a200b2fd200093fc2300ba
:100f60006260e1000400320022a9200063f0230047
:100f70000c10a70063f8230078fe07000df0a7000f
:100f800001f0a2004f06be004f05be004f04be0098
:100f900000000600889fbe008a9fbe00841f780064
:100fa0004dff07004f00780011003300f0ff2f00c5
:100fb000838f6c0006003b00040565000a00a70053
:100fc0000800370009f0a6001000200008003700d4
:100fd000820f5400838f5c00030039001000200052
:100fe00001003e000000200009f0a7000000ea0018
:100ff0004f05be004f04be000000e00000000600e8
:020000040000fa
:0200000401f009
:04000000e6ff000017
:020000040000fa
:0200000401f009
:04000400ff7f00007a
:020000040000fa
:0200000401f009
:040008007fff000076
:020000040000fa
:0200000401f009
:04001400ffff0000ea
:020000040000fa
:100008003cc800003cc800003cc800003cc80000d8
:100018003cc800003cc800003cc800003cc80000c8
:100028003cc800003cc800003cc800003cc80000b8
:100038003cc800003cc8000028c300003cc80000c1
:100048003cc8000096c700009ec600009cbe000089
:100058003cc800003cc800003cc800003cc8000088
:100068003cc800003cc800003cc800003cc8000078
:100078003cc800003cc800003cc800003cc8000068
:100088003cc800003cc800003cc800003cc8000058
:100098003cc800003cc800003cc800003cc8000048
:1000a8003cc800003cc800003cc800003cc8000038
:1000b8003cc800003cc800003cc800003cc8000028
:1000c8003cc80000c8c500003cc800003cc800008f
:1000d8003cc800003cc800003cc800003cc8000008
:1000e8003cc800003cc800003cc800003cc80000f8
:0800f8003cc800003cc80000f8
:020000040000fa
:100108003cc800003cc800003cc800003cc80000d7
:100118003cc800003cc800003cc800003cc80000c7
:100128003cc800003cc800003cc800003cc80000b7
:100138003cc800003cc8000028c300003cc80000c0
:100148003cc8000096c700009ec600009cbe000088
:100158003cc800003cc800003cc800003cc8000087
:100168003cc800003cc800003cc800003cc8000077
:100178003cc800003cc800003cc800003cc8000067
:100188003cc800003cc800003cc800003cc8000057
:100198003cc800003cc800003cc800003cc8000047
:1001a8003cc800003cc800003cc800003cc8000037
:1001b8003cc800003cc800003cc800003cc8000027
:1001c8003cc80000c8c500003cc800003cc800008e
:1001d8003cc800003cc800003cc800003cc8000007
:1001e8003cc800003cc800003cc800003cc80000f7
:0801f8003cc800003cc80000f7
:020000040000fa
:1010000006000000260000001f0000001200000083
:1010100027000000180000001c0000002d00000048
:1010200041000000fd000000e5000000320100006a
:101030008b0200001e0200004400000024ff00009c
:10104000b8fe0000bdfe00003dff000027ff0000cd
:101050003dfe000026fe00009efc0000dcf90000c2
:101060003bfe0000c908000044100000d60e00003e
:101070009405000033fb00005ff600008ff70000ce
:101080008afa00008afb0000a3fa0000a1fb00001e
:1010900021010000e7080000a60d00001a0c000066
:1010a000bb03000046fb0000a9f80000d3f90000d4
:1010b00037fd00004aff00005afe0000c3fd00009b
:1010c000d6ff0000f90300002c060000d801000044
:1010d000d0f8000029f80000cf030000ff0f000047
:1010e0007f110000d406000014f9000088f200000f
:1010f000ddf5000006fd00007a0000009ffd000005
:1011000059fa000033fd000016060000d30d000060
:10111000b20d0000ec04000025f9000007f5000006
:101120009bf8000020ff00001503000000010000f4
:10113000adfd0000e6fd0000a7020000270700004b
:101140008703000013f7000027f100003dfd0000b9
:10115000bd100000b41900009e100000f7fd000053
:10116000c3f00000d8f000003ff900003bff000092
:10117000b2fc000016f7000030f80000c6010000c5
:10118000a20d0000211300003a0d0000a50100008f
:10119000acf8000082f5000006f9000051fd0000e7
:1011a00048fd000002fb0000f7fa0000c9ff000044
:1011b000d70600002e0700001afd00004bf60000c5
:1011c0002dff0000980f0000d21600009b0d0000bc
:1011d000a4fb000013ef0000a5ef00005ff8000083
:1011e00010ff00009efd000076f900007dfa00006f
:1011f00021010000390b0000b11200005010000066
:101200001006000049fa0000bbf20000edf30000f8
:1012100083f9000095fc000066fc0000c6fb00009e
:1012200015ff00003005000078040000befc00003f
:1012300022fb00003006000051130000be13000026
:10124000bf050000a0f40000beec0000cbf00000e1
:101250003bf9000017fd00004ffa000009f90000fb
:101260007cfc00008e030000790d0000db12000002
:10127000470e0000c7010000c8f40000b1ef0000f5
:10128000e5f300002cfa000026fc00001dfb000026
:10129000d7fa00005e00000017060000d40100002d
:1012a00011fa0000f6fc0000120c000036170000d6
:1012b0009511000010ff000067ee0000e5ea000055
:1012c0005ef200002afb000032fc0000abf80000d8
:1012d00087f900007bfe000027080000981300003b
:1012e00000160000000d0000c8fd00004cf00000da
:1012f00057ed0000c0f30000e1f90000cffb000053
:1013000077fa000065fc00001d040000980600004c
:10131000ea00000094fd000044070000b41400003f
:101320008d1400003204000080f0000075e8000019
:1013300049ee00001df90000defd00009afa0000f1
:10134000f2f9000009fe0000ec0400007a0f000032
:101350007c1500000d1200004c050000ebf40000ad
:10136000d3eb00000fef000015f70000e4fb0000d6
:10137000d8fb0000d8fa00008d0100005c070000d7
:1013800079050000ef010000450600006b11000028
:10139000d1130000d40600006df3000041e9000005
:1013a00040ed00005df8000088ff000070fd0000c7
:1013b0004bfc00005eff0000fe020000f10900008f
:1013c000dc110000fa1500000a0f0000d5fd000036
:1013d00021ee00002aeb0000e7f2000006fb00000f
:1013e000a4fd0000dffa000071fe00009805000077
:1013f000cc0800008a0a0000b80b0000f50e0000bf
:10140000d40d0000020300002af400008cec000060
:101410009fef000020f8000077ff0000feff0000b3
:1014200050010000ca030000ee010000100200009d
:10143000e7090000ab160000bd180000ff0800001f
:10144000daf20000b5e7000046ed00000df90000fb
:10145000a0ff00002cfc000085fa000086010000bf
:1014600060080000780f0000d9120000e8100000aa
:10147000ae0a0000bffe0000daf2000031ee00000c
:1014800047f2000040f8000091fd0000f3fe00006c
:10149000c802000089080000940500002800000030
:1014a000bf0100003a0f0000181a0000db11000015
:1014b0000cfb00008ee800002ae800005ff400004a
:1014c000deff00009bff0000bcfa000037fe0000ba
:1014d000fe030000eb0a0000d31000003c130000e4
:1014e000ea1000000c05000059f5000042ec000075
:1014f0000fef000001f60000c1fb000026fc000019
:10150000d9fd000011060000b90800001108000014
:1015100034070000850a000086100000630c0000fc
:10152000c9fc00000aed0000cee90000bef1000099
:10153000fdfc0000530100005cff00000102000000
:10154000af02000067020000190700002d0f000025
:10155000e31500001c0f000057fc0000eceb00003e
:10156000c0e9000065f2000030fb00001dfd000036
:1015700016fa0000c4ff00004f0700003809000001
:10158000070b0000a90b0000e90d0000950b0000ff
:1015900065ff0000ebf00000ffea000058ef0000dc
:1015a000c1f7000087fe0000b8fe00005d020000e9
:1015b000b70600000a040000f70200005906000008
:1015c000ca0f0000251400003c0800002ff40000a2
:1015d00050e80000d7eb0000a7f60000a7fe0000cf
:1015e00024fd000006fc0000230300002306000089
:1015f000430700009d090000110e0000b611000015
:101600004c09000040f800004deb000001eb000029
:10161000c6f2000032fb000078fd000085fd0000ee
:10162000d4040000ff07000041070000cf080000bd
:101630000e0b0000f60e00007a0a0000b5fb000059
:10164000d3ed0000e9ea0000fff1000027fb0000f5
:1016500001000000b6fe00002d0300000807000096
:1016600058030000dc020000870700005f11000043
:101670001014000081060000f5f20000ade8000043
:10168000eeec00008bf70000f8fe000096fd000075
:10169000f4fd0000c7050000d1070000e2070000cc
:1016a00046090000900c000027100000c10800004f
:1016b00011f900009eec0000d1eb0000c4f3000023
:1016c00047fd0000d1000000d4ff000030050000fd
:1016d0001807000097040000a60500008908000014
:1016e000ab0e0000810e00005902000019f300004b
:1016f00026ec00008ff00000f5f9000082000000e9
:10170000fefe0000deff00003c0500001a040000a1
:101710002c030000bf060000330e000089130000f8
:10172000fb0b0000cffa0000e0ec000072eb0000c1
:10173000c3f3000016fd00008dff00005ffd0000f8
:10174000af020000d60700002f060000e6050000eb
:1017500039080000e00c0000640d0000da0300000e
:10176000daf50000dfed0000b3f0000038f900000a
:101770001d000000fffe00002afd000041020000e5
:101780009d0300000a030000eb060000b70b0000f9
:101790001f0f0000fb0b000066ff0000baf2000004
:1017a00083ef00006cf40000c2fa0000a5fc00000a
:1017b0007bf900003bfc00008a0500009606000053
:1017c000c403000037060000310c00006d1000005b
:1017d000c00a0000b8fb000080ef000016ee000019
:1017e000e0f4000092fb00004cfc0000f1f8000067
:1017f000b2fd0000c50700004c0700000a0300000e
:1018000077040000540b00007d100000cc0900009c
:10181000cbfa0000f9ef000099ef00001df6000080
:1018200040fb000068fa00005af700008afd000043
:101830002e0800005808000017040000b104000042
:10184000440a0000750e0000220900002dfc000073
:1018500072f10000e1ef00005bf50000ccfa00003f
:10186000a4fb00007df90000e6fe0000d90700009f
:10187000e50600005602000080030000c9090000d0
:10188000f30d0000dc09000001ff000081f50000fd
:101890000df2000028f40000a3f80000ccfa0000cc
:1018a000b5f90000aefd000075060000e606000078
:1018b00065010000c50100003d0a00003d11000067
:1018c000bd0e0000e901000093f4000077ef000076
:1018d00062f200005ef8000069fa0000f9f800000a
:1018e000ccfb00002d070000240d0000880600003e
:1018f0001b010000a7030000ba0800001d0c000037
:10190000650700009bfb00005ef20000def00000b7
:1019100054f7000074fe000031ff000046fb000099
:101920006afe0000c0040000ec02000087ff000017
:1019300082040000090e0000aa120000530e0000ed
:10194000a5000000e8f3000011ef0000e6f1000040
:10195000a7f7000032fa000003fa0000a0fe000022
:10196000450a0000f90c0000de02000024fd000022
:1019700040040000490e0000da1000006e0800006c
:10198000f7f90000d3f00000a0f00000f5f6000029
:10199000dafc000072fd0000c0fb000054010000f2
:1019a000c50a0000180800004afe000030fd0000d3
:1019b00026070000de1000009d110000290700002e
:1019c000a1f800007bf0000003f20000d2f8000054
:1019d000c1fb0000faf90000f6f900007f040000e6
:1019e000cb0e0000f6080000b9fd000063fe000009
:1019f000ec080000f40e0000510c0000740200001e
:101a0000cef70000d6f200000bf5000088fa0000c7
:101a1000c6fb0000bbf9000037fa000029050000f2
:101a20001a0e000084050000f1f9000087fd000097
:101a3000c30c00001e150000580f00000d00000030
:101a4000d0f2000083ef000057f40000c2fa00005b
:101a500009fb000091f80000e6fa0000e50700002d
:101a600037110000e205000067f60000eef8000004
:101a7000740b00009a170000b6110000ecff000084
:101a800001f10000d2ee00004af500006efb0000fc
:101a9000fff9000037f6000076f900006c0800003e
:101aa00045140000eb08000002f50000aaf3000056
:101ab00002070000d91600003a130000f8010000e8
:101ac000baf20000dcf00000c8f70000edfc0000f6
:101ad000f1f90000e2f3000013f5000052030000ea
:101ae000e1120000550c00006af700001ff2000030
:101af000180500005819000054180000b004000038
:101b000047f0000036eb0000f0f30000bdfd0000e0
:101b10003bfe00006ff600008bf300005afe000051
:101b2000171200006d140000b0fd000037ec00003b
:101b300004f7000036110000ac1b00007d0f000010
:101b400005fa0000dced0000a2f200000afd000032
:101b5000b3ff000072f600000dee0000fcf3000081
:101b60002f090000601a0000750d0000e5f100006b
:101b7000c6eb0000d1030000491c0000ba190000a8
:101b80003403000013ef00003fee000020fb0000d4
:101b90002d03000042fc000031ee00006eec00005e
:101ba0006cfd000099160000e01a00009cfe000089
:101bb00031e5000013ee0000bd100000e22400003b
:101bc0009b160000d5f9000006ea000096f100001f
:101bd000290100005e030000dbf4000075e700004f
:101be000b6ee0000be070000881e0000ce16000002
:101bf00016f300004ddf000070f40000e01a000052
:101c000031260000b50d000023f00000d2ea0000ec
:101c1000cffc0000ed0a0000ac0100009cea0000cf
:101c200069e00000dcf10000bf0f00006920000047
:101c30002f100000afea0000cfdc0000fdf900002b
:101c400019230000402b00007d0c0000afea0000cb
:101c5000f3e80000210200002011000091000000c4
:101c6000bae20000edd9000022f4000040180000a4
:101c700038250000220e0000e2e5000034d9000003
:101c80003bf900000a2500008c2d00008a0d0000a1
:101c90008aeb000082eb0000da050000f812000079
:101ca000e7fe000075df00004fd800008cf4000054
:101cb0007d180000ae220000420d00004ce900003b
:101cc00097db00001ff7000094200000f22c0000ba
:101cd0003112000044f0000072eb00003a030000f3
:101ce0005b130000e902000015e30000c8d8000003
:101cf000b9f1000099150000611f0000e00a000022
:101d000086ef00008ce2000050ee00007f0a000029
:101d100093200000261f00008d0c000032fe000002
:101d200097000000bc070000afff0000f0e80000d3
:101d30001cda0000b2e5000039030000e6170000dd
:101d40001a140000f803000004f5000015ef00006d
:101d500087f90000760d00008b1800004d1100007f
:101d6000bc0100006dfc0000110600004c0c0000de
:101d7000acff000061e900000fe000008ced000006
:101d800045050000c71100005b0c000090ff00003b
:101d900042f300005cef000073fc0000a91000009b
:101da000f9190000c01300008c080000d6040000e0
:101db000f40500001b00000070f000003de2000090
:101dc00057e4000095f60000260a00002d100000e0
:101dd000550900000501000046f80000acf20000c3
:101de00099f900007b0b000051190000101600004b
:101df0003008000031000000b702000009030000b5
:101e0000cbf7000005e90000e9e4000043f1000021
:101e100051040000d60d0000fd090000b3fd0000d4
:101e200030f10000d0f200002106000096180000fa
:101e3000d7170000c8070000b6fb0000cc00000068
:101e4000de0b000089080000def4000081e40000e1
:101e5000a5e9000032fd0000140a0000f6050000ac
:101e60002efb000080f80000b7fa00008afa00009c
:101e7000f8fc000077080000d2130000dd1100001c
:101e8000d9060000750100002f070000070b0000b5
:101e90004b0100004af0000098e800007cf10000cf
:101ea000e2fe000049020000cafc000017fb00002f
:101eb0007b0100000e03000058f800009cf10000b8
:101ec000c5000000ed170000e31a0000240a00001e
:101ed0005cfb0000c3fc000052080000440b000043
:101ee000d8fd0000d5ec000022ea000063f70000f6
:101ef00019060000f50600008bfc000048f5000004
:101f0000fef50000faf900007aff000075090000f4
:101f1000de1200008211000097060000f3ff0000af
:101f200041020000d902000036fb000055f200001b
:101f3000c9f200000afe0000ed080000d60700000c
:101f4000dbfd000056f3000057f0000071fa0000be
:101f5000c40900004f0e00000e0600007aff0000ca
:101f60009a030000970b0000d609000011fb000047
:101f7000e8ec00000bee0000f4fb00002d0900006f
:101f8000c80b0000fa0500006aff000026f80000f8
:101f900065f20000dcf70000b90600004612000000
:101fa000f91100005d090000b9030000de02000025
:101fb000befe000081f30000c2e70000a7e70000ba
:101fc00080f6000001090000f60f0000230a00005f
:101fd000a101000075f80000e9f20000edf9000031
:101fe000c60b00006a190000e4150000f7070000a6
:101ff0002b000000c6020000f20200008ff7000074
:10200000d8e80000fde400008ef10000910400001b
:10201000de0d0000da09000078fd000012f100007a
:1020200000f3000080060000be180000ab1700009f
:1020300082070000a2fb0000ff000000f40b00007c
:102040005808000086f400005fe40000e7e90000a3
:102050007dfd0000250a0000d10500000cfb0000fa
:1020600089f80000bafa000085fa000017fd0000a8
:10207000b0080000e8130000b8110000ae06000030
:102080007a0100004e070000000b0000080100006c
:102090000cf00000a2e80000adf100002dff0000f0
:1020a000ea020000eafc0000dcf90000b9ff0000d1
:1020b0004f0200007df90000d8f300002d0200005f
:1020c000f016000018180000a50800005dfd0000d3
:1020d0004b000000730900003e09000069fc00008d
:1020e00083ef000051ef00002ef90000bf00000058
:1020f0000cfe00001ef70000dff700008afe000063
:1021000023ff0000cff900009bfd00007e0c0000c3
:10211000851400008e0b000051ff0000a1fe00009e
:10212000650500002b0900005c05000036fd00007d
:102130001df9000022fb000029fc0000d2f700007e
:10214000b1f10000caf1000066fb0000dd040000f0
:10215000c8000000ddf60000b8fc0000af0e000073
:102160000a1400007805000041f3000054f4000058
:10217000320a0000a6190000e310000047fd00002d
:102180005ff60000bfff0000880600001ffb000094
:10219000a3e7000009e300008cf50000980b0000a5
:1021a0006c0d00000bfe000086f2000024f8000019
:1021b000520900006d100000ce00000089f20000fe
:1021c00028fa0000010e00004419000089100000e8
:1021d0006601000079fe00004d0500008d0500003d
:1021e0000ef90000a9e9000072e60000c6f3000045
:1021f0007103000056070000b000000032f9000033
:1022000095fa000090010000130800008c05000002
:1022100090fa000029f7000027000000680f000076
:102220004c150000100e00004e0400009400000049
:10223000e1040000f0070000670000000af1000060
:10224000c7e8000091ef0000d1fc0000f0020000a0
:10225000a5fe000037f900004bfa000055ff000012
:10226000fe0100005c03000061020000ccff0000e2
:10227000090000005c0300000d0800008609000052
:10228000e0080000bb0500006a020000070400002f
:10229000de060000740400005afe0000bcf90000d5
:1022a00025f800008af70000dbf5000059f4000073
:1022b0001cfa0000420500001e06000005f900009f
:1022c00044f0000025fd0000e30c00005a0a000065
:1022d000c7f80000d5f4000070080000911100005c
:1022e00038060000f6fc0000d90000005708000086
:1022f0000c0a0000c90500002103000003040000cf
:102300004102000030fd000041f90000d2f500005c
:1023100028f4000095f8000073fb000087fa000025
:1023200019fa00003ffb00000fff00005f030000f0
:10233000d006000036020000c1f700004dfa000090
:102340007f0800000f0c0000ab020000ee00000050
:10235000510a0000c90d0000b3080000c1010000cf
:10236000eefe00004e00000054ff0000fcfb0000e9
:1023700055fc00005f0000004aff000035fa000035
:10238000f7f60000f8f7000060fc0000e5fc000034
:10239000c9fd00003400000038f9000030f70000eb
:1023a000ca00000098030000ea050000b50900001b
:1023b000910000005dfb00004e060000cd0d000006
:1023c0004e060000f7fa000082f900007b020000d0
:1023d0007209000004040000b7fc0000f4ff0000d4
:1023e000790500002d010000e4f8000004f9000068
:1023f0000fff000067ff000097fa00009df9000042
:1024000021fc0000aefd0000a9ff0000c801000093
:1024100041ff0000fafb000000fd0000f8ff000093
:10242000f40300007b040000c3ff0000130200005f
:102430002a0800000f0800003e070000800100008d
:1024400077fb000057000000f00400005bfd000077
:102450000cf80000aafe00000d02000031fe000092
:10246000dbf90000d0f90000c0fd0000b9fe00005b
:10247000bcfe000084fe000005f900004bfa0000dd
:10248000ac020000d2020000700400004d08000001
:10249000ed000000b9fc000075050000ac0b000069
:1024a000f6040000e0f9000004f80000f00100006c
:1024b00036090000f5010000e1f9000093ff00007b
:1024c0007d070000f50100003bf800002afc000039
:1024d0009d050000e00100004ff9000078f90000c0
:1024e000fafd000029ff00000100000095ff000038
:1024f000eaf70000b5f80000930300003e03000077
:1025000094fd000039fd0000dbfd00002003000009
:10251000950300002f010000100700009300000049
:10252000daf50000b2020000fd0e000020fd000000
:1025300022ef000023fd0000ee090000ab070000c1
:102540004900000026fd0000600000005e0300005e
:1025500031ff0000defb000065000000ff0000000e
:102560005bfe000097fe00001bff00000a01000058
:10257000470000006cfb0000c0fb0000d900000019
:10258000eb010000cffe0000d2fd0000e1020000e0
:1025900093030000affd00006cfa000050ff000044
:1025a0008306000074020000eefd0000ccff000076
:1025b0008e0000004101000033ff0000c8fb000056
:1025c00069010000ab0600009efe00003dfc00001b
:1025d00048060000190a000026fe00004af4000028
:1025e000e1fd0000230b0000a6030000b0f5000091
:1025f0001ffd0000100700006e03000058ff0000e0
:1026000020ff000017fe0000170000002c0500004e
:102610003504000088ff000016fd000063fe000086
:10262000ac0100003c0000001efe00005dff000049
:102630006d000000c10100001b010000ac000000a3
:102640006d0200002601000089fe0000fdfe000072
:1026500019ff0000bcff0000fc0200002600000083
:1026600088fc000048010000ae0400006700000084
:10267000fafd0000d30000009801000017000000e0
:10268000fcfb0000a0fe0000be07000041030000ac
:1026900077f7000041fb000063070000ff04000023
:1026a00002fc000067ff00002b0300005000000048
:1026b000fafd00000afe000073010000f7000000b0
:1026c00016fe0000aefe00005ffd0000f2fc000000
:1026d000550300000005000085fe00004afd0000d3
:1026e000b70100000802000067ff00003c00000086
:1026f0005700000046fd000090fd0000530100005f
:10270000b402000037fe0000dffc0000a001000062
:102710004e0200008afe00007ffd00001c02000047
:1027200090030000d5fc00003efb0000ce0100003d
:102730005005000097000000e6fa00003efd000092
:1027400027010000610300009203000073ff0000f6
:1027500026fb000065fd0000dd0300007f04000093
:102760002dfe000010fc000009000000bdff00006d
:1027700088ff00009fff0000f6ff00001901000025
:1027800002000000a9fd00002cfe00002a0200004b
:102790009a0100006efe00002bfe000052ff0000b8
:1027a000abff00007fff000082ff0000440000003c
:1027b0004101000002010000a6fc000094fd0000a1
:1027c000e30300000902000091fb0000fef9000095
:1027d00045fd0000fd010000db02000009000000d3
:1027e00058ff000036000000a40100005f01000057
:1027f000d8ff0000bffc00002dfc00004cfd0000d5
:1028000069fd000015020000ab000000d9fc0000cb
:1028100077010000c304000054020000a8fe00007d
:102820004cfc0000e2fc00009d0000001a000000cb
:1028300053fe0000aa000000f30000009501000014
:10284000ae0100004bfc00004bfc00000003000048
:10285000ae010000e5fe0000e5fe000030fc0000d7
:10286000e9fe0000c50300003b010000dbfb0000a7
:1028700098fc00005202000042040000a9ff000082
:10288000c7fd00001c0200001402000075fd0000de
:1028900024ff000069030000d700000075fc000061
:1028a00057fd000078ff0000ea000000340200003d
:1028b000dc000000020000004e000000d10000001b
:1028c00036010000c4fe000062fd000024fe00008e
:1028d000be00000017030000380200001d000000c9
:1028e0001dfd0000b3fe0000520200007701000051
:1028f00081fe0000b3fe000054020000b902000097
:102900004bff0000c8fd00004d0100006e030000f9
:102910002dff00007ffc0000f5fe000064010000b8
:102920007300000066ff0000a30100007d020000ac
:1029300006ff00003bfd000048020000b803000055
:10294000c7fd00000cfc00006ffe0000aefe0000a2
:102950001afe000005ff00003b00000043020000db
:102960003d030000520200005e020000d70100009b
:102970001f00000092fe0000a8fe000064fe0000a0
:102980002afd0000f9fe0000ef00000078ff0000c3
:10299000fbfe000048010000f301000054000000ad
:1029a0009c00000072000000bafd000099ff0000ca
:1029b0009f020000b3000000fcfd000058ff000073
:1029c0006601000097fe000011fd0000ddff000021
:1029d0005302000036000000fcfc0000450000002f
:1029e0009a0400006f020000ecfd000030fd0000c2
:1029f000790100008a02000041fd000071fd000025
:102a0000b4020000110200002dfe000073fe000061
:102a1000f90100006c0200001aff0000e7ff00004f
:102a20001c02000054ff000099fd00003801000066
:102a30005c02000009fe0000ccfc000073010000f5
:102a4000c40300009eff00006dfd0000e7010000d0
:102a5000dd030000dcfc00009cf90000d300000056
:102a60005c0400002fff0000b1fd000034030000f3
:102a7000d2040000a1ff000095fc0000edff000063
:102a80000a02000033fe000000fc00003c000000d1
:102a9000a5020000e7ff0000befe000039ff0000b5
:102aa0003aff000000010000890100005bff000008
:102ab0001aff000072000000e5000000c8ff0000df
:102ac00086fe000023ff00005d000000f6ff00000e
:102ad000a0fe0000c9ff0000f50000000e0100008c
:102ae000ed00000012ff0000e5fe00004f000000b6
:102af000410000007e0000007500000033fe000071
:102b000091fe00005d0000004cff0000abfe0000e5
:102b100066000000210100007cff0000540000005e
:102b200004020000b200000097fe00000cfe00004e
:102b3000ccff000097ff000026fe000045ff0000cc
:102b4000ba00000076ff0000effd0000f801000071
:102b500077040000f4ff0000ddfd0000b800000075
:102b60004b02000098ff0000d9fc000093fe00001b
:102b7000540000009dff00001bfe00001aff000033
:102b80006c0200006d0200002b00000051ff0000ed
:102b900082000000a600000010fe000034fe0000cd
:102ba0008c00000042ff0000e1fd0000faff000081
:102bb0007d01000083000000a8fe000005ff00006a
:102bc000340100001a0100007aff000037ff000006
:102bd00075000000f200000004ff0000b7fd0000d7
:102be0006eff00009f00000040000000c4ff0000d6
:102bf000e5fe000047000000280200000a00000077
:102c0000ecfd0000a6ff000089010000610000004b
:102c100037ff000096ff00002d0000004300000079
:102c2000daff00000e000000fbff00007cff000048
:102c30002800000033010000f4000000a8ff00009d
:102c40003fff00005f0000008700000080ff0000e1
:102c50007aff0000de0000001901000091ff000073
:102c6000defe0000a4ff0000840000001f00000042
:102c700017ff0000d7ff0000f4010000b3010000bf
:102c800054ff00001d000000670200006f010000fb
:102c90004fff0000fafe00001801000032020000a1
:102ca0008dff00000cfe0000af000000ea010000f4
:102cb0006dff000021fe00007800000057020000b8
:102cc0007a000000a3fe0000720000009c020000d9
:102cd0000b0100001dff00009b00000047020000e8
:102ce00089000000c4fe000059000000b901000086
:102cf000ac00000004ff00000100000035020000ed
:102d00000b010000e5fe000054000000b2010000cd
:102d100022000000f5fe000098ff000016010000f0
:102d20000f0000007cfe000065000000eb010000c9
:102d30000f000000c9fe0000640000000102000056
:102d40000301000097fe000046ff00009d01000007
:102d5000d2000000f5fe000052ff00000e0100004e
:102d600056010000f2fe00004afe0000e3000000f1
:102d7000080100008cfe000087fe00004e000000ed
:102d80007b0000003cff0000dafe00007e00000037
:102d90003201000052ff000006ff0000c7000000e3
:102da000f9000000a5ff00001eff00000f0000005a
:102db000b0000000120000002dff0000ceff000058
:102dc000060100007d00000069ff0000f0ff000028
:102dd000b3000000490000005fff000021ff000079
:102de000550000006200000035ff0000caff00002f
:102df000ed0000004800000075ff00001500000015
:102e000015010000ce00000043ff000075ff000028
:102e1000fe0000009200000079ff0000acff0000ff
:102e2000af000000e800000058ff0000ccfe0000ea
:102e300099000000b6000000d0fe0000ecfe00008b
:102e400030000000f6ff000019ff000019ff00002d
:102e50005f0000009e000000e7fe000026ff00006b
:102e6000c60000005d00000052ff000058ff000097
:102e7000e3ff00001b000000bbff00004bff000051
:102e8000a5ff0000340000001b000000ceff000082
:102e900096ff0000e2ff000078000000bcff000089
:102ea000a5fe000092ff0000cb000000fdff000027
:102eb000fefe0000b6ff0000a80000005d0000005c
:102ec00090ff0000a1ff00009600000079000000c4
:102ed000c1ff0000d8ff00003f000000ac00000070
:102ee00054000000baff000022000000cb000000e8
:102ef0000f0000007eff0000610000008200000063
:102f0000fbff0000d5ff0000eaff00003b000000cf
:102f1000f3ff000081ff00003c000000af00000054
:102f20002b0000000c000000530000007d0000009a
:102f300018000000b7ff000015000000540000005a
:102f4000d0ff0000a0ff000044000000750000005a
:102f500016000000dbff00003d000000be00000086
:102f60005d000000ceff0000ceff00005a00000010
:102f700091000000f0ff000075ff0000dfff00007f
:102f80005b000000070000009bff0000daff00006c
:102f90005a00000037000000d3ff0000f3ff0000dc
:102fa0001d0000002c0000000c000000d9ff0000f4
:102fb0000500000045000000510000000300000073
:102fc000100000006a000000610000001f00000007
:102fd000deff00001b00000051000000efff0000ba
:102fe000d1ff00003e0000005c000000fdff00007b
:102ff000d5ff0000380000006d0000002000000038
:10300000dbff00000900000007000000cfff000008
:10301000e9ff0000feff000012000000ffff0000bb
:10302000deff0000080000001a000000ecff0000b6
:10303000fbff00005400000047000000e6ff000016
:10304000e1ff00004a00000059000000e6ff000018
:10305000caff00004e00000080000000f9ff0000e1
:10306000e1ff0000430000005600000002000000e5
:10307000bfff00000f0000003e000000f9ff00004d
:10308000caff0000f3ff00002c0000000400000055
:10309000d5ff0000e8ff0000150000002000000040
:1030a000e5ff0000d2ff0000050000001100000055
:1030b000dfff0000c7ff0000efff00000c00000072
:1030c000e1ff0000c3ff0000eeff0000040000006d
:1030d000d8ff0000c9ff0000e5ff0000feff000070
:1030e000e5ff0000c5ff0000dcff0000eeff000070
:1030f000deff0000d0ff0000d8ff0000e8ff000066
:1031000002000000edff0000daff0000d8ff000021
:10311000a4ff000095ff0000b4ff0000b3ff000013
:10312000c1ff000093ff0000cfff000063ff00001d
:1031300065ff000032000000b50100005e010000e4
:1031400034fc000051fb000024040000e3020000f6
:1031500002f9000019030000d0f6000010fa000088
:1031600083120000e9fb0000b8fa00006d050000c2
:1031700000f50000d201000046170000470a0000d9
:1031800008dd0000d4f50000151f000086ef0000e8
:1031900092f80000b00d00002cf60000f9030000ca
:1031a0007804000040090000b1f80000b3e9000015
:1031b00094140000c207000081eb000069010000c8
:1031c00066130000a8fc0000e8f700004b070000b1
:1031d00016f400000dfa0000c30c00002afa0000eb
:1031e000fdfd00005c0200004d0300005a010000dc
:1031f00059f90000ca000000c4ff00002a000000c6
:10320000990100007e050000e6fe00001f16000088
:10321000da0a0000fed10000e80900006d18000085
:103220006fe100009ffe0000990e0000fafd000013
:10323000890500008df3000038ef0000111e00002a
:10324000990800009df40000860c0000240a00008c
:10325000170d000064fa00003dee000012f20000bd
:1032600036030000600b00002bf60000d7030000bf
:10327000b90a00000f010000cffe000051fc000061
:10328000bcfe00000bfa0000f5010000a0070000e2
:10329000c4f30000990500005a0c0000cdf70000af
:1032a00081120000800000000ae00000de00000043
:1032b0004909000054f90000c3ff00004cff000062
:1032c000690a0000a20c00002df2000089fb00003a
:1032d000600a0000420100006efb00007202000064
:1032e000ba2000001e1b0000c2cc0000c5e2000096
:1032f00023200000a4ef0000bbf40000ba0d000082
:10330000a6010000bbf9000057f4000063070000ad
:10331000af0e0000e70700007cfb0000fd05000089
:10332000c213000027090000d3fe00003eeb00009e
:1033300036f00000b80400000500000044fa000068
:10334000210100007f010000a4fc000005f2000044
:1033500084010000671d000074020000c8f1000035
:10336000bf010000aafd0000c7fb00000a01000029
:1033700027060000b10a0000f4f7000076f2000012
:103380004bff000028f90000dffa000019fd0000e3
:10339000fbfe0000ca04000024fa000070040000d4
:1033a00089060000f201000008110000e0f50000ad
:1033b000b5ff00000e1b0000f0fc000023f9000028
:1033c000cdf700006dec00008dfc00005003000004
:1033d000dbf90000e5fd0000fa04000036f900000a
:1033e00080010000850a0000fdfc0000fb080000d1
:1033f0000a07000066f5000061ff0000b10100004f
:103400006efb00005d0a000033020000d8f20000ed
:103410008e000000f0f8000083f40000dd040000de
:10342000cc000000a2f7000060040000540400007b
:10343000f2f70000b6030000b60900009ffd00008f
:10344000f1fd0000b70d00004c0e0000b40c0000b0
:103450004ef400001adf00009afc0000e7fd0000b7
:1034600031f80000f20a00009b02000038eb000077
:10347000a90000008b0f0000c4fd0000310e000009
:10348000cd1d0000e0fe0000af0300006a0d00004b
:1034900079e50000e9ee00005104000040f300006f
:1034a00052f900007309000047fc00002cf90000ed
:1034b00035f80000110d00003113000022fd00005e
:1034c00024080000c3fb000056fa00005405000069
:1034d0007a010000120000006ffb0000d2fc000027
:1034e0005df70000cdf800002cff0000f5fe0000a5
:1034f0008bfb000042fc0000c9fb00007f0b0000ba
:103500009e12000031fa00006dff0000df0a00008b
:10351000ad000000470400008e0f0000bff2000065
:1035200024ef00004efd000057ed0000680400008d
:1035300084070000a8fa00009e1000005f0500004c
:1035400031f20000ae0300002e050000b0fb0000c9
:10355000a6fd0000a7010000820d0000120b000074
:1035600018f70000d6f9000027fd0000d7f700008b
:1035700075f900003502000074fe000075f40000cb
:10358000bd0d00006f01000010fc0000f90b0000f1
:103590009c03000088170000edfc00004e110000a5
:1035a000d60400003ed300000206000091ec0000ab
:1035b000fbf500007b0c0000e1f60000f5030000c5
:1035c00058f100002e0c0000a327000005fc0000ad
:1035d000c5f10000ba1600003107000086f40000b3
:1035e000610b000084df0000ffec00009b0c00007a
:1035f0000afc00003c040000d9020000a8ff000003
:103600008cf50000ed100000e20c0000bdee0000a3
:1036100017f400008afe000069060000da090000c5
:1036200044080000180a00002ff5000001e1000026
:10363000d9060000b8fe0000cdf60000e9fe00004b
:10364000fdf9000071090000f8f30000fd1400000e
:10365000991b00005eee0000080c000093080000bb
:103660000ff60000c70100008bf9000020f70000f2
:1036700022fd00006bfb000057f60000030600006f
:10368000540d0000b6fa0000a8f80000bffe0000cc
:1036900078fd000084080000f102000013f900002a
:1036a00099090000c70800007cfd0000dbfe000057
:1036b00065fb000035f000004bfc00003508000001
:1036c000bcf5000012f900007203000004fa0000cb
:1036d0007d130000c80700008f0700004319000099
:1036e0005ff700009d06000034ef00007af0000054
:1036f000880b000039e4000043f90000af1000001f
:1037000067f7000025f300000e0800008d1d000083
:10371000fe060000aff90000f00b0000a0fb000067
:10372000470300008401000033ea000001fc0000b0
:1037300018fd000045fd00009a0c0000c9ff0000c4
:10374000c0fd000058f900006ffd0000ec0e000005
:103750001200000099fe00002ffb0000a0ff0000f7
:103760006411000028fd00003cf60000bcfd0000d4
:103770003ff800005ffb000046040000e1fb000092
:10378000b4f90000fc0100003ef60000900e0000bd
:10379000dc17000074fe0000d1060000830b00005f
:1037a00056f8000094f8000006fd0000cafb000077
:1037b00077ff0000ebef0000a7ff000052080000b9
:1037c0005dfe00006d07000061fd0000fbff0000d2
:1037d0006105000006fd0000c0050000e7090000cb
:1037e0001f00000011fb00001eff0000f20200009d
:1037f00040fb00003af300001efd0000b30400008f
:10380000bef900001306000047010000eaef0000c7
:103810005b110000c8090000a8fa0000b9130000fd
:103820006b0e0000b6f1000080f20000b90300004a
:1038300062f600001df60000bb020000bffd0000a4
:1038400002ff000088f900005df30000ca1b0000c1
:103850004d1800006ffd0000d70300009f0000001e
:10386000ff00000092ed0000cd070000fbfe00000d
:10387000cbdd0000b1120000c00b00007ef500009f
:10388000880a000087f300001101000047100000c3
:10389000fdf700008a09000035fe000083f70000f4
:1038a000cc0b0000b0ff000029000000f7ff000073
:1038b00071f10000c8f40000c6080000fdff000020
:1038c0002cfa00004b070000aaf20000250c0000b3
:1038d000221b00003cf900007ffe0000e0f4000025
:1038e0002000000008140000bbfe0000bcf7000030
:1038f000d4ef000074f80000b005000039030000a8
:10390000400600004f0100003afd000024fd0000c9
:1039100037fe00005eff000046020000a901000023
:103920009e0100008f0c000044fd000023f5000004
:103930004403000014f70000f5f500004e050000f8
:1039400048010000e2f90000f6060000f1fd000069
:103950000bf900005b14000053fc000031ff000075
:1039600011160000d3010000ef01000070ee00000e
:1039700089f50000bfff00005bf600009b0500001a
:103980005b00000000fc0000cb000000bcef00006a
:1039900099fd00001e1b0000810700005d0e000065
:1039a0005b0400006cf500003cfa000010f500001c
:1039b000da090000a6f6000098ee00005a080000a0
:1039c0005f040000160200005e010000f0f000003d
:1039d00021020000100f000050ff0000b2fe0000a6
:1039e00054f90000defb0000ba0600005608000093
:1039f0009cf90000bdfc0000bd020000c7f1000002
:103a0000acfe0000270200004df8000023fd00007e
:103a1000e0010000ce000000bbff00007a100000b3
:103a20009707000096fb000074030000d4fc000020
:103a30004d05000022ff00008df4000099020000f7
:103a40006df90000f0f70000f0ff000085ff0000b6
:103a500090ff00006402000019fc000033f8000031
:103a60000b1100003c0800009bf80000c40f000090
:103a7000a404000047f5000014fe00005bfa0000fb
:103a800088ff0000cffd000050f80000b2fb0000ee
:103a9000ea01000049010000fdfe000082fc000078
:103aa000d1f00000920b00005a110000e1fb000071
:103ab000a508000093070000b4f9000071fd0000a4
:103ac00077fe000061fb00000cff00007ffb0000a0
:103ad0001dfa00000fff0000370200007aff00000f
:103ae0009ffe0000b80100005efd000045050000db
:103af000a30800000df9000080ff0000ec060000a4
:103b0000930000006c0400007dfb0000d9f700006a
:103b1000f3ff000090f80000e40000005f040000e4
:103b2000bc020000ae060000b6fc000086fd0000ee
:103b3000bdf8000020020000740b0000c3f7000075
:103b40000e020000ad0e00006bfe000098fd0000ac
:103b5000edfa000081f60000ef0400005f020000b3
:103b600016fc00008301000082fd0000b1fd000092
:103b700084070000a3fa000023f80000ea0e00000a
:103b800084fe0000f1fa0000020a000011fb0000b0
:103b9000adf9000088fe0000a7ff0000a6fd0000b0
:103ba000730300003b0b000022ff0000d500000063
:103bb000a500000051fe00007e050000a3f60000f5
:103bc0001afe0000d10500007df6000031fc000067
:103bd000e8ff00001dff000020010000b40100000c
:103be00064f80000a40000005711000064fd00000c
:103bf00051000000a50f0000bcfa000054f90000bd
:103c00006efd000017fb0000f500000071fa0000d7
:103c100026f9000008fe0000310300000aff000042
:103c200012000000edf5000060f7000054150000e0
:103c3000680600003cfe0000670c0000ad000000bc
:103c40009df9000069ff000063fc0000cefc00004d
:103c500092fe0000aff90000b3fb00003d01000040
:103c600014010000ccfd00000a01000036fe000037
:103c7000c3fd00008d0a00008d0400002ff9000034
:103c80000c0600006f0600006f0100000a03000030
:103c9000f8f5000023fb00004d0000007bfa000057
:103ca0002cfe0000fafe00008f03000068000000f8
:103cb000a2fe000085fd000088fb00005d0b0000f7
:103cc000d4070000f0fc00002a0f00002e0a0000bc
:103cd000fdf7000062fb0000c9f900003bfb00009b
:103ce00089ff0000ebfa0000defd0000760700000f
:103cf000c6fc0000e3ff00000d01000059eb0000ce
:103d00000b0d0000c91700009bfb000023100000f2
:103d1000520800005ff5000073fd00006dfb00001d
:103d2000c0fa000065fd0000b0fe000071fd00005b
:103d3000a101000058030000dcfc0000d6010000d7
:103d40006afb00001af90000c714000039090000de
:103d5000a8f60000c5ff0000e3fc0000d50100004c
:103d6000d10300006bff00005900000003fa0000bf
:103d7000e8fe000081000000eef6000044ff0000b5
:103d80001e030000c60000001afe00007cff0000b9
:103d90005d010000f9fa00007b0a0000d307000073
:103da00032fc00002d020000ff010000c5070000ea
:103db000cafc0000cefc000081fd000050f50000b0
:103dc000b0030000d5fc0000cdf80000d5040000d1
:103dd00080020000fafb0000b50000007cfe00003d
:103de0007bf00000f1080000301000006e020000bf
:103df000760c00006f00000014fb0000f3fb0000d5
:103e0000e2fa000008fc00001ffd0000b9030000fa
:103e1000e1fd000087fc0000ddff000002ff000064
:103e2000acfb000058ff00006c04000083fa0000a7
:103e30003d040000e70b000065f600004bfe0000ab
:103e400070020000c5f80000dc030000b6000000ae
:103e50006e010000290300007cfa0000bafa00009d
:103e600056fd0000cfff0000fefc000081ff0000b7
:103e70004e01000001000000dc000000b8fe000060
:103e800014fb0000bcff00006e080000b40300003b
:103e9000f604000002ff000023fa0000ed0100001c
:103ea000d4000000e5000000780000005c03000082
:103eb000ccff00009bfb000069fd000031fa000010
:103ec00093fc00009dff0000440300004afe000038
:103ed000fd000000b2fb0000daf80000da0d00007f
:103ee0008006000055010000a60600007c030000cb
:103ef0005bfe0000b40300001b0200007ff3000023
:103f00000100000034ff0000c7f8000003020000b9
:103f100096fc0000f1010000ed030000cdfa000066
:103f200030020000a9ff000047f9000086040000ed
:103f30003f060000a5fd00001a0800001106000061
:103f40002bf90000bdff000003fd000087fe00000c
:103f50006c030000b8fc0000d40000003100000039
:103f60004dfc000030000000bdff000063fe0000bb
:103f7000e5ff000093030000a3fc00002ffc0000fd
:103f8000ce050000380000004905000007070000ca
:103f9000b5000000740200002e000000b600000012
:103fa00075fb0000baff00005b050000e0030000a5
:103fb00060fe0000eefb0000c00000003afa0000c6
:103fc0004ffe0000a101000066ff00001d0400007c
:103fd0000aff0000fa0000004b000000e6f70000b6
:103fe000000400005d090000e9fc000089000000f9
:103ff000f407000062000000c3030000e4040000b6
:104000007ef6000042f80000b30100000cfe000044
:10401000fcfd0000e9010000a9fd0000d003000044
:1040200094020000e9f8000021fe000095fe000067
:1040300030fe000069fe00008a0100004309000014
:10404000bc0200006c000000480600006100000097
:10405000fafd0000f6ff0000c9fb0000e8fa0000ce
:10406000e8000000fe00000009fd0000ccff000099
:10407000ef00000057ff000086000000cdfe0000aa
:10408000b0fc00008dff0000d0fa0000f8fe000038
:10409000ae0a0000600300007fff00004002000045
:1040a000dffd00007cfd00002c0000006bfc000028
:1040b000bcfe000066030000940000009bfe0000b0
:1040c0006dfe00002cff000080fe0000effe0000ef
:1040d000cfff0000ffff000085ff0000e5020000a9
:1040e000b6ff0000fefa0000b500000029fa00004b
:1040f00074ff0000830b0000bbfe000043000000c3
:104100004e050000b5fb0000eeff0000a1ff00001f
:1041100084fc00000d010000c0fe000021fe000034
:10412000bd0100008802000002ff00009afe0000ae
:10413000540000006afd000024ff00008701000019
:10414000b80000003a010000c5fd000001ff0000ba
:1041500029fc0000f4f90000130c00008e0a000096
:104160004bfb0000b501000036fd000010f9000017
:10417000b3ff00000bfc0000c2ff0000b60500000a
:1041800026010000a2ff000024030000f4ff00004d
:1041900076ff0000e7020000e2fd0000aefb000039
:1041a0007800000075020000140000002efe0000e0
:1041b0009cfe0000de00000095ff000007fd0000ef
:1041c00080ff000025020000d20300000d01000066
:1041d000f0ff0000f0ff0000c1ff000075000000cc
:1041e00099fe000072010000c4010000940000006c
:1041f000ed0000006aff0000c60000006c01000036
:104200008afe00006ffd000095ff000070000000b6
:1042100068ff0000da000000d701000032ff000054
:104220008dff000001000000d8fe000020ff00000c
:1042300090fd00003eff0000830200001402000019
:10424000f9ff0000c1fe00008b010000a500000086
:10425000bfff0000e2010000010200005004000066
:104260009e00000060fb000043fd00000dff000009
:1042700022fe000072fe0000080100002d00000078
:104280009bff000026000000fafd0000cffe0000aa
:10429000670000008cfe000079fe0000e2ff0000d5
:1042a00041010000dd0300002f0100007401000047
:1042b00073050000d5fd0000a1ff000013020000ff
:1042c000f9fa00008d0000001cff000023fc000034
:1042d0007600000071ff000050ff0000e9ff0000c1
:1042e00037ff00002cff000049000000c5fe000061
:1042f0006efe000043000000d7ff0000b1ff000089
:104300002f0100005f00000048ff0000b2ff000026
:10431000b2ff0000b0000000a7ff00007201000023
:104320001a020000f5fe00007b01000030000000d2
:1043300085fd00004e0100001c000000dffe0000b3
:10434000d3ff0000f4ff000086020000d7fe00004b
:10435000cefd0000080200006800000092ff00008f
:104360006bff0000a1000000370100006afe0000a2
:10437000bd0000004300000056fe0000f9010000ef
:104380007c000000fefe0000b6000000d10000002e
:10439000f0ff00003bfe0000f4fd0000c2ff000043
:1043a0004e0200004c02000027010000cf00000078
:1043b00043010000c3ff0000aafe0000c6fe00008b
:1043c0002fff0000520100009200000070ff00006b
:1043d00050ff000073ff00000eff0000f2fe00001f
:1043e0008c010000a200000050ff00003602000017
:1043f00070000000f1fd000057ff00000d000000fc
:1044000099000000fcff0000bdff0000a7000000b5
:10441000ebff0000f6fe00007fff0000a1ff0000a0
:1044200003ff0000fbff0000280000002eff00003b
:10443000f3000000cb00000039000000f201000092
:104440009f0000007bff000020010000c901000068
:10445000acff000096ff0000e00000001d0000001f
:10446000f0ff0000030100002101000093ff0000a5
:1044700093ff0000c8000000ed000000d0ff000026
:1044800066ff0000fcff00000a010000ce010000f2
:1044900059ff00004aff0000620100003c000000dc
:1044a00047000000baff0000d8fe0000c600000070
:1044b00097000000adfe000050ff0000b7ff0000b5
:1044c000aaff00000d01000082ff0000670000004d
:1044d0006702000019ff000069ff0000ec00000007
:1044e0008bff000097ff00002600000097000000ef
:1044f000acff00005bff000038000000c0fe0000c1
:10450000beff00002b0100008fff000085ff0000b0
:1045100063000000b6000000deff0000c0fe0000e7
:10452000cefe0000430100009401000010000000d6
:10453000b9000000c2000000430000009eff000020
:10454000e8fe000090fe0000bd000000f800000042
:1045500099ff000097ff000030ff00001f000000df
:104560004dff00005fff00001b010000bbff0000cb
:104570003900000076010000d7fe000055fe000063
:10458000baff00002000000045000000aeff000060
:104590001c0000009200000087ff00000dff0000db
:1045a0009eff00006bff00004eff00005500000062
:1045b00096ff0000afff0000480100002d00000042
:1045c000f1000000c4010000ccff0000f1ff00007a
:1045d000c7010000100100002cff0000490000008e
:1045e000ba000000d6ff00004e000000520100009b
:1045f0008b00000044ff00001400000008010000d0
:104600008f00000072ff00009dff00004c000000c2
:10461000a20100001b010000a2fe00006e000000cd
:104620002b010000ffff000059000000bdfe00004c
:1046300082ff00003901000083ff0000d4fe00006b
:1046400095ff00003aff0000a4000000f500000004
:1046500009ff0000a4010000be010000dcfe000014
:10466000100000004600000045ff0000f9ff0000b8
:1046700076000000e8ff00007cff0000c3ff0000a0
:1046800029ff0000eafe000059000000440000007d
:1046900087ff00007fff00006e000000bc000000ec
:1046a0001600000010ff0000fbff0000e701000003
:1046b00022ff0000f6fe00000a010000c7ff000014
:1046c000c9ff00004800000035fe0000b7ff0000f1
:1046d000d20100002aff0000baff00005aff0000cc
:1046e000b5ff0000b801000033ff00007dfe0000b0
:1046f000fbff0000200000007aff000015ff000013
:1047000065fe0000d1fe0000d0ff00004bff00005e
:1047100072ff0000e6ff00001a0000009c0000008d
:10472000e6ff0000b6fe000068ff00005300000036
:104730001b000000b5ff0000caff0000e0ff000002
:104740002b0000004b00000092ff000036ff00002d
:10475000a4ff000099000000f1ff00005eff0000d0
:10476000780000007b000000c4fe00009dff0000f8
:10477000ac000000ddff000098ff000093ff000088
:10478000ff000000f3ff000045ff0000ba0000003a
:104790005aff000050ff0000c9000000e6ff0000c3
:1047a000a2ff0000ae0000004c0000009dff0000d2
:1047b00045000000f2ff0000220000003900000068
:1047c000c9ff0000be000000feff0000ffff000068
:1047d000910000006bff0000e4ff000025010000d5
:1047e00092ff0000abfe000007010000390000004e
:1047f00014ff0000fe000000f3ff0000e9fe0000cf
:1048000090010000a00000006afe0000810000008e
:10481000820100002500000021ff0000a20000002e
:104820009a000000250000009b000000d1ff00005e
:10483000de0000006200000041000000a80000004f
:1048400051ff00008f000000b900000012000000be
:10485000880000005f0000008f00000050ff000093
:104860004e0000006b0000009dfe00006b00000089
:10487000170100003b0000001a0000007d0000004e
:104880000200000038ff0000310000006800000056
:10489000d8ff000065000000ba0000002e000000f4
:1048a000b8ff0000e9ff000011000000ddff00007c
:1048b00078000000530000004a000000650000007e
:1048c0009dff000068000000520000007cff000017
:1048d0002a000000760000007dff000071ff00004c
:1048e000c10000009f000000a4ff0000d6ff0000f0
:1048f000abff00007dff00004a0000000600000042
:104900005bff00001800000056000000ebff0000f5
:104910001b000000ebff00002eff0000a7ff0000bf
:104920005c000000e5ff00002600000099ff000089
:1049300077ff0000520000002200000066ff000028
:1049400005ff0000f8ff0000570000001e000000f7
:104950007800000091ff00001cff0000a80000008c
:104960006800000008ff0000bfff00001e000000fc
:1049700042ff000020000000bcff0000c0fe00005d
:10498000c7ff000025000000cfff000090ff0000df
:10499000baff0000b6ff0000bfff0000c1ff00002b
:1049a00087ff0000b1ff000050ff0000b4ff0000cf
:1049b000480000005aff00008dff0000ffff0000cc
:1049c000d6ff000080ff0000cfff0000b9ff00000d
:1049d00037ff00003f0000002300000065ff0000db
:1049e000adff0000a4ff00009cff0000afff00002f
:1049f000b2ff0000ddff000013ff0000eeff00002b
:104a000060000000d9fe0000b3ff0000f5ff0000c9
:104a10003bff0000dfff0000f6ff0000c1ff0000c9
:104a2000c4ff0000cbff00004a000000f7ff0000b9
:104a300034ff00000500000039000000d2ff000034
:104a40000d0000003b0000001e000000fcff000005
:104a50004900000030000000f7ff000043000000a4
:104a60005e0000006b000000610000002c000000f0
:104a70005b000000410000002300000079000000fe
:104a80005f000000f3ff0000600000007a000000fb
:104a90000a0000003c00000050000000620000001e
:104aa0005d000000430000008e00000023000000b5
:104ab000f7ff0000960000002e000000eeff00004f
:104ac000630000006d0000005c0000005100000069
:104ad000630000005300000073000000500000005d
:104ae000ffff00004e0000004e0000001f0000000d
:104af0006300000060000000490000004300000067
:104b0000470000003e0000001200000028000000e6
:104b10003a00000052000000600000005e0000004b
:104b2000430000001b0000002000000047000000c0
:104b300017000000020000002a0000002000000012
:104b400031000000feff000012000000170000000e
:104b5000d6ff00001e00000022000000e0ff000061
:104b60001a00000024000000090000000d000000f1
:104b7000060000001b000000d8ff0000e4ff00005a
:104b800037000000edff0000f3ff000017000000f9
:104b9000e9ff0000f3ff00000a000000d5ff00005d
:104ba000cdff00000c000000ecff0000d2ff000071
:104bb000e8ff0000daff0000f5ff00000100000040
:104bc000bfff0000cdff0000e5ff0000ccff0000ac
:104bd000f7ff0000eeff00009fff0000d5ff000080
:104be000f7ff0000afff0000baff0000faff00006f
:104bf000ceff0000cfff000007000000caff00004a
:104c0000c2ff0000f5ff0000dbff0000c0ff000056
:104c1000e8ff0000d2ff0000c2ff0000f6ff000026
:104c2000b6ff0000acff0000e5ff0000a9ff000098
:104c3000c7ff0000f0ff0000aeff0000b1ff000062
:104c4000d7ff0000bbff0000b2ff0000c9ff00005b
:104c5000bfff0000c4ff0000d7ff0000bfff00003f
:104c6000c5ff0000d7ff0000ccff0000d6ff00000a
:104c7000c9ff0000c4ff0000deff0000e2ff0000eb
:104c8000d0ff0000deff0000dbff0000e9ff0000b6
:104c900005000000fdff000000000000f6ff00001e
:104ca000f0ff0000deff0000f2ff0000fdff00004b
:104cb000e1ff0000d8ff0000ffff0000e7ff000059
:104cc000f1ff000005000000ffff000025000000cc
:104cd000d6ff00003e000000a0ff000075fe0000af
:104ce00015ff0000f00400003000000060f9000033
:104cf0003e070000f502000044f6000049020000f3
:104d00001107000099fb000051fc00005505000050
:104d100087fe000033fe00005300000018fe000074
:104d2000410200004efe00000bfd00007fff00006e
:104d300024020000ed0000000e1600001bf700002a
:104d4000dde0000030220000fa0200004fdf00002a
:104d50001f06000099100000fb040000b0e90000ed
:104d600028f20000b4320000def400004ad2000055
:104d7000882500004a0a000095e80000bc000000f9
:104d8000f30300000e0b0000f90d00003cdb0000f7
:104d900067010000b21e00003fe90000a4ef000020
:104da0004c130000250e00001ae800005902000014
:104db0007a0b00000ff6000018fc0000e90100006b
:104dc00057000000abff00009e150000bae800008d
:104dd00067ef0000ea26000026f20000c0eb0000aa
:104de0002a0c00008502000051fd0000f0fc0000cc
:104df00013fe0000230800009405000026f60000c2
:104e0000f4ff000025070000cff80000ddff0000e0
:104e100068020000a2120000e902000011de00009a
:104e2000e71400005f0e000018df0000f90000002a
:104e3000a10e0000e6fd000071f800005df9000021
:104e40002308000014130000b3fc0000eef400007f
:104e5000610800003a060000f0f7000059fa00006f
:104e60006c0d0000b50700009bfb00002eee00005b
:104e7000620c000064060000ebdd0000db100000a7
:104e8000ba0800006ef900000aff000058ff000099
:104e90004c0b00008ef200009a030000af010000ee
:104ea00039fa000085060000860000007606000042
:104eb0003bf30000e3ff0000160b000020f00000b1
:104ec000b8fc000074040000dbfb000004fe0000de
:104ed00078010000bafe00002f010000520000001f
:104ee000b6fb00004cfc00003efe00008e090000f6
:104ef000600000001c04000018050000e7f000003e
:104f000016030000350100000bf1000032fc000028
:104f100075070000d7fb000014f40000ad0c000082
:104f2000edf90000c8060000fd0a000023f50000ae
:104f3000720b00001f000000a0020000e506000048
:104f4000cdfa000035f80000b60b000001f70000b4
:104f5000f7e90000e60a0000040300009df50000e8
:104f60002cff000093060000e7fe00008f00000009
:104f700073fe0000ff0900001c070000a0fc0000f9
:104f80007d020000e600000082fd000075ff0000c9
:104f900092ff000059f40000170200002b030000ec
:104fa0008cfb000095fc0000920800003aff000016
:104fb0000cfe00002cff0000e7fa00003c0c000093
:104fc000e6f40000ea030000120b00008cef000082
:104fd000c10d00007101000048f10000670b0000e6
:104fe00085fa0000c5fb0000ba0300003e02000085
:104ff0008700000002fd0000caff0000dc01000085
:10500000470000000dfa000012050000a308000090
:10501000d5080000d40200005df80000e1fd0000aa
:10502000d70a0000e8f700006def0000c70c000091
:10503000f6040000fbf4000005fc00000c0d00006d
:10504000ccfa0000ae0500007913000072f50000f4
:1050500084050000f90b00002800000081fb00001f
:10506000c5ff0000070a0000fbf7000021ef000069
:10507000900900008b020000bbf10000e801000075
:105080003b050000c8ff00009e09000097020000d9
:10509000eafc0000dc0a0000eafe0000cbf400009d
:1050a0009f050000330600004af7000010fe0000d4
:1050b00034000000550800003cf400002bf4000010
:1050c0005710000080f40000f5fe0000bc06000050
:1050d000d6f900000c0200005d03000038f6000065
:1050e0001604000010060000aff2000027050000c3
:1050f000b6040000d2f90000d1fb00004503000017
:1051000027010000fbfc0000ce010000d4fa0000e3
:10511000fe01000050ff000010fc0000040500002c
:1051200009ff0000de07000089030000ccf7000043
:105130001cf80000090f000081fa000058ef000081
:1051400034090000eb030000fdfb000075f40000d3
:105150005c09000045ff0000330200006f090000f9
:10516000c10a0000400d0000eae900005c030000f5
:1051700018130000d9f10000e5ed000078040000ec
:1051800004130000b1f5000031e5000064110000d7
:10519000ec160000ebed0000dcf20000af140000a4
:1051a0007907000095ee00001f050000df0b0000ee
:1051b00003fa0000acfe000010fe000052f40000f4
:1051c000c2060000e80300005df400007602000063
:1051d00058070000510200002bfb000008000000ef
:1051e000dc0900006e0100003efa0000f4fe000041
:1051f000f8010000030200007dfb000025fc000018
:105200005e03000018020000dffa0000fffa000051
:105210005e0300002200000059010000f9fd0000bb
:105220002f0c00009bf800003ef700004111000029
:1052300072f6000008fc00004904000005020000ae
:105240001dfe000018f90000760600002e01000087
:10525000f4f600001702000008030000b0fd000093
:105260007bfb00001b030000fd0b0000bd020000e3
:105270000bee0000e6fb0000e31b0000a5f30000be
:10528000e5e500006515000037080000c2ef0000ea
:10529000d9f40000010e0000cd06000097f40000d4
:1052a0001a0b000022070000ae050000f0f8000015
:1052b00021fd0000d20a000076fc0000f9f6000093
:1052c00093f50000030a000016060000caed000076
:1052d0009efd00005b0d00007b0b0000f3fa000058
:1052e00071f70000df1000008f030000e1f2000002
:1052f000590100003d0600002d000000f5f70000f8
:1053000011f80000610b0000f5030000f7f0000049
:10531000da03000072080000d2f9000099f70000db
:1053200015110000450c00003ce9000041ff0000a1
:1053300071100000a6f80000a6ef0000b6060000fd
:1053400020080000a6fd000070f40000fa02000032
:10535000f31d00009ae30000bef50000822000006b
:105360006def000047f200003009000073050000f7
:105370005307000048f1000050fe0000960f0000a7
:10538000c7f400004ff10000b00700002b10000030
:1053900090ed00009a0200003610000043f4000077
:1053a00062fc000084ff00009d0e00004609000022
:1053b000cee400006b0400007d1c00002feb000019
:1053c00077f00000571200002f030000e7f2000002
:1053d0006ef90000cb0c000099020000e4f300001d
:1053e00052020000de09000001fe00008ef80000fd
:1053f0001f160000bf02000058e100006412000008
:10540000df1200002ad800009b000000941e00005c
:1054100057f00000f4f70000f20200004c1000000a
:10542000ad0100009afe0000b910000092f00000eb
:10543000cb0400006c0f00003fe5000022040000d8
:10544000b5170000a8e60000e80300006f0e00009a
:105450005ff700006af3000025010000360c000031
:1054600025fc00002c13000097ec00006ffc0000ee
:1054700053200000eede0000e1f40000cc15000037
:105480006dfc00008df60000250200009dff00006d
:105490000a130000ab0100000ede0000091e000030
:1054a000740d000071d7000042060000f51d0000d9
:1054b000c5f400000de3000008130000ea0a000034
:1054c000a0e7000077f500009511000054090000e6
:1054d000dce20000cf05000011100000fafa000025
:1054e0005bfe0000a4000000950c000025f8000001
:1054f000a7fb00002e080000bffc00001bff0000ff
:10550000eeff000052fc0000acfa0000b500000005
:10551000f5ff000072fb00003d040000d5fb000019
:105520005ffe00003204000068f700005d13000019
:10553000f8f90000bde80000d11900004e0000009d
:10554000bae80000100600006b0c00003ff70000f6
:1055500090f40000fe08000066070000c2f300009f
:1055600060fe0000be060000d4000000baf8000093
:105570009b04000063100000cae8000026fa000047
:10558000d21a0000a3ef0000b8e60000be1a000027
:10559000070400007ae7000038090000f90800005d
:1055a000f9fb00006f050000561800008eef0000a8
:1055b0005df000001e1f0000a4f9000042e400009e
:1055c00083100000b4090000a1ed000040fe0000bf
:1055d000fc0e00002b02000022ed00003909000043
:1055e0008a050000dcf60000b4fc0000df070000c4
:1055f000761c0000b8e30000c2ec0000022b0000a3
:1056000033f300009fd80000ff1d000005100000cc
:1056100041e20000c005000025070000280a000044
:10562000b80a0000aef30000d0ff0000dc1000005c
:10563000c3f9000011ec0000670f0000b209000080
:1056400029f20000b1f800006a06000051fc0000d9
:10565000e7f70000eaff000013030000a8060000bf
:1056600055fa000084fe000038100000ba07000060
:10567000d3ed0000c9010000661300002af100000c
:105680004bf40000f8100000680100001df200005b
:105690001d010000fd060000d6fd00003df90000e0
:1056a00042010000b803000086fe0000aefb0000cf
:1056b00010060000260700008df5000062fc0000c7
:1056c0004e080000a1fc000010f6000001050000db
:1056d000760400007cfa000062ff0000390300003d
:1056e00073000000b4020000e2010000a2fe00000e
:1056f0006c0a00007eff000089f000000704000033
:105700009a0a0000c0f70000f3f20000eb09000065
:10571000e006000081ee0000f9ff0000610b0000d0
:1057200068f60000b5f90000511500007808000087
:10573000c1e9000004000000cf11000076fb00006a
:10574000a0ee0000b8030000b00f000032f500002a
:105750007cf30000d40c00006e05000052f2000043
:10576000d5010000050d00009c030000960000001c
:1057700013f7000085fc0000ae070000f5ff0000f5
:10578000d3f00000aefa00007a1800002ff50000f8
:1057900036eb0000d51400001f02000052e40000a8
:1057a000cc1500008d2e0000a6d8000010e90000e6
:1057b000942c0000b802000095dc000070f7000097
:1057c000701e0000d5fc00003ddf00000f0a000045
:1057d000fc1d0000e3f2000015ee000004180000bc
:1057e0004c000000aaef0000b30d00000407000009
:1057f000a9f20000e6ff0000c705000062ed00000e
:10580000defe0000760c000041f60000b0f800005b
:10581000e6080000b90e000086fc000044fc000011
:10582000590800007f0100006af8000086fd0000b2
:10583000d5030000a3ff00007afe00008df80000f1
:10584000ec010000a906000038f4000077f9000020
:105850005c0b0000a5010000dcfa0000f80000006d
:10586000fdfc000048060000aa01000003f2000051
:105870000f0500004e0b0000b9f50000fef8000017
:105880003f0800002e01000059f90000e8fc00006c
:105890006c030000e302000079f80000dafe00006b
:1058a0003009000015040000effd00002efa000092
:1058b000cdff0000c6030000d5ff000074f8000013
:1058c0003e000000fb0a000056f80000d7f7000079
:1058d000090700001f02000049f800005a000000fc
:1058e000241100001606000021f6000039fe000019
:1058f0004a070000b9fc0000e6fa0000bcfd000009
:1059000042ff00001f0800000cf800002cf8000007
:10591000a50a00004bff0000aeec0000c20d000025
:10592000b1270000dbed0000f4e50000ab13000040
:10593000500e000090ed000044f00000540d0000f7
:10594000d7090000eeef000013f4000087180000f4
:105950008a060000beeb000073030000400b00004d
:105960006dfa0000b6fc0000730f000095ff000008
:10597000b7f000001b050000e204000054ed000039
:10598000f6fa0000c40f0000bdf90000e5f30000c6
:105990007e090000ea0a00001c080000b7080000a9
:1059a0002afd0000caf60000eeff000032030000ee
:1059b0005bfc00002af80000c4ff0000e70b0000b9
:1059c00061fc000098ec000023000000490c00007e
:1059d0004bfb0000fefa00002e0d0000d203000079
:1059e000cff5000021ff00009b060000adff000086
:1059f00062f800008d00000039090000f901000084
:105a0000f9f8000071fc0000b3050000fd00000083
:105a1000fcf70000e9ff0000ba0d000038060000a6
:105a2000a5ef000084f900006d0e00009701000052
:105a3000dff20000e4fb00007c0c0000b605000073
:105a40004ff3000040fc0000040900005900000072
:105a500032fb000087030000cb0c00003d06000075
:105a60002df6000002fc0000bc0500009d010000b6
:105a7000bbfa00000ff60000190400001d0b000027
