:020000040000fa
:08000000ea25040001000000e4
:020000040000fa
:100200000e42040000000000d24104000000000083
:10021000a841040000000000b641040000000000f6
:10022000c441040000000000386d0400000000001c
:10023000800078001106b100030035009101b10083
:1002400001003c000050a100000006001004b100b5
:10025000030035009001b10001003c0010000500d2
:1002600000000500800078001104b1000300350093
:100270009101b10001003c000050a0000000060008
:100280001004b100070035009001b10004003400f3
:100290007000b100030035009001b10001003c0086
:1002a00010000500000005006900e10004003500b1
:1002b0006d00e100030034000002b10001003200d3
:1002c0000000050010000500889fbe008004780033
:1002d000c09e80000000e00003003a009a00070082
:1002e0000000e0000a003500c09e80000900e00028
:1002f00002003a000004780006003700000478008d
:1003000009004000900007000000e00001003d00ef
:100310000084eb00080078004f04be0000000600d7
:100320000c02e20004003d000f42ab00020032006c
:100330000f02ab00feff32000040da00feff370084
:100340000a00fa0080017800e20f500028003e0009
:10035000d09e8000e10f500008003200e021200014
:100360000000e0000500320064212000852120000b
:10037000a62120008001780004003700c42020005e
:10038000e520200006212000432120001440900099
:100390000004e000040035008009eb0014409000e8
:1003a0000074a00010429800154090000028a3009f
:1003b00003003a00154090000024a00090429800ed
:1003c0008001eb0007003700154090000008a300f3
:1003d000fdff320063c078000000fb00000b7800d6
:1003e0008301e800828f5100f7ff3a0008003700d0
:1003f00030002000b0bf9f00c3bf9f00d1bf9f004f
:10040000e2bf9f006a80570000c0da006fb9970012
:10041000020078000080fa00000006000a00fa00de
:1004200011002000b1bf9f00c0bf9f006a8057002d
:1004300000c0da004fb897000080fa000000060004
:100440000a00fa0051002000b1bf9f00c0bf9f000a
:100450006a80570000c0da005fb897000080fa0099
:10046000000006000a00fa00881f7800800178006a
:100470000000e00029003a00d09e8000e10f50000b
:1004800008003200e02120000000e00005003200fa
:100490006421200085212000c721200080017800f0
:1004a00004003700c4202000e52020002721200080
:1004b00043212000144090000004e00004003500b7
:1004c0008009eb00144090000074a00010429800d6
:1004d0000002eb000c003700130a200015447800de
:1004e0006140640002003a008301e900fbff3a002a
:1004f0000402e8009541780061c061000500320007
:10050000170078008058780004035100820f5200d1
:10051000f1ff3a00060051000800370020002000db
:10052000a0bf9f00b3bf9f00c1bf9f00d2bf9f006d
:100530006c80570000c0da005fb897004f04780065
:100540000080fa0000000600800078000000e00053
:1005500004003a00c03d2100c09e880001017800df
:10056000060037000081eb00c0452100808f50005d
:1005700002003e00c19e88000001eb0002007800ee
:1005800000000600020ab900001bb9000200b80012
:10059000810042008100430000000600f4ff2f00ac
:1005a0004303370003f0a200889fbe008a9fbe006d
:1005b0008c1f780059030700600333006450e1008a
:1005c0004f0032006420e1005200320003826c00d0
:1005d00007003b000905d0000306d000820f54003d
:1005e0000c065d000200390002003200890178002b
:1005f000030678008582550004003d000003fd00dd
:100600008103fd008502ea008b854200840f7200a1
:1006100002003b0060001000e08018006011b8008c
:100620000005eb007a28e1000a0039000600780096
:10063000c75ddd00f707b200878075002d00370029
:10064000828171000a017800610560008180d1001b
:100650000080d3008502e900f9ff3b00060440005a
:100660008784480002003b0060041400e0841c0002
:100670000988a300070032008a817100828171001d
:10068000610164008904d1000884d3008b05e8006f
:10069000170037000978a30013003a000b00e000b0
:1006a000130034008b05e9000804440089844c00e1
:1006b0000a4474000978a3000d003a000b00e00022
:1006c000070034008b05e9000804440089844c00cd
:1006d00001003a000b0020000978a300f7ff320068
:1006e0000001eb0002003700828171000a017800ee
:1006f000220307000cf0a70001f0a0001803370048
:100700006420e10002003a00838f6c00180333007c
:100710000801be000200be001103370004002000e3
:100720003c033700889fbe008a9fbe008c1f780064
:10073000fa0207000103330003866c006450e100f5
:10074000240032006420e100270032006150e10003
:10075000220032006120e100210032008b8542003e
:10076000eb07b1000134b800003ab80008044200b9
:1007700089844a00013ab8000030b80088804000ff
:1007800009014a0004003300000040008180480055
:10079000020149008b05e900c909dd0083017000f1
:1007a0000100320013002000c814de004814dd00f0
:1007b0004709de001200b200c808de00088470009d
:1007c000ee02070001f0a1000cf0a70001f0a0006c
:1007d000e30237006120e100e50232000801be00bb
:1007e0000200be00f7ff37006150e100fcff3a0055
:1007f000df023700889fbe008a9fbe008c1f7800f2
:10080000c6020700cd02330003866c006450e1008d
:100810002e0032006420e100330032006150e1001c
:100820002f0032006120e100310032008585550043
:10083000eb07b00009002000080420000500370085
:100840000804440089844c000a0031000603430078
:1008500087834b000001530081815b00f8ff330068
:100860000203be000800a0000804440089844c0074
:10087000f6ff3900c639dd00830173000100320044
:10088000130020008904d1000884d3000998a30034
:10089000050032000800a7000300a0008904d10071
:1008a0000884d3008b05e8008904d1000884d300b4
:1008b0000001eb000281d200b002070001f0a100ac
:1008c0000cf0a70001f0a000a50237006420e100b1
:1008d000a70232000801be000200be00f7ff370089
:1008e0006120e100a20232006000b800f3ff37008f
:1008f0000000200001f82700f0ff3700889fbe00ad
:100900008a9fbe008c9fbe000004be00100307003b
:100910000800be00890678006420e1000800390064
:10092000040032000160a00012022000724a880018
:100930005300370091fc2300b0fd20004e0037002b
:100940000006eb0009f0a10003f8230002002000dc
:100950000800be00440107000600340001f823002f
:10096000000020000801be00a2ff07000004be0036
:100970002c0020000800be0093e82300320a230068
:1009800039010700120034000801be00d1fd230028
:10099000703d2b0004ff07000005be00b3f32300e9
:1009a000f27a26000800be005eff070003f823006d
:1009b00002002000fbfe07000801be00fafe07004f
:1009c0000a01be008bff07000004be000c06e80011
:1009d0000800be0001f0a1000200200003982300df
:1009e000210107000800be00160035000801be0006
:1009f0004cff07000005be0032cd2c0043fb230056
:100a0000e9fe0700809fbe001269280003d52b0075
:100a10000a00be0043ff0700620f210013ef2b0006
:100a2000e1fe07000a01be003eff07004f01be00c5
:100a300070ff07000801be003aff07000801be0072
:100a4000d9fe07000c00e0000b0032000c10a700dc
:100a500001f0a200b2fd200093fc23006260e100df
:100a60000400320022a9200063f023000c10a7002c
:100a700063f82300ccfe07000df0a70001f0a200f0
:100a80004f06be004f05be004f04be00000006002a
:100a9000889fbe008a9fbe008c9fbe000004be00df
:100aa000ab0207000800be006420e10048003e00e1
:100ab0005500320072212700132b2400b7fe0700d7
:100ac00047003c000800be00c2ec2800e32c2c00cc
:100ad000e5000700470035000800be0001f0a10056
:100ae0000200200003382300df0007004300350028
:100af0000800be00b2a32a0083fb230009ff070001
:100b00000200200003f0230001f0a70003f0a00082
:100b1000a5fe0700400007000005be009400070086
:100b200001f0a2000006be000200280013f323001b
:100b3000fcfe07000801be009bfe0700809fbe0070
:100b40000c00be0032082800e3952b00f5fe0700dc
:100b50004f01be0094fe07000006be000001be006b
:100b6000f0fe0700809fbe004241250083b82300ad
:100b7000ecfe07000200200003e823008afe0700c5
:100b80000c01be00e7fe07000006be004f00be00dd
:100b9000f2f92b00c3d42300e2fe0700020020007c
:100ba00003f0230080fe07000c01be007dfe07005d
:100bb0000001be000c00be000eff07000200200076
:100bc00003f0230078fe070061014500750207006d
:100bd0004f06be004f05be004f04be0000000600d9
:100be00001f827000000200022022000724a88003d
:100bf000f7ff37006000b800fbff370001f8230063
:100c000000002000f2ff370009f8a300f0ff3200d7
:100c10006000b800eeff37000001be004c02070084
:100c20000470a70003f0a1006509b10016003200ae
:100c30000d0035006828e10006003500f0ff2f00a8
:100c4000f1ff27000300e00013003b000100280033
:100c50000000050000004000818048008502e90096
:100c6000fcff3a0008003700f88f420002003c0009
:100c70008000eb00000005008100d1000080d3005f
:100c80008502e800fcff3a000300e00002003b00a0
:100c900060001000e080180000000600889fbe0081
:100ca0008a9fbe008c1f78000004be002802070047
:100cb0000478a30026003a006120e10025003200fc
:100cc00009f8a30025003a006420e1002100320069
:100cd000f507b1000508a300020032000000400043
:100ce000818048006044b80003102000020020000a
:100cf00000004000818048000805440089854c00c0
:100d00000a0541008b8549000a0550008b85580073
:100d1000030033000a00be000204740083847400e0
:100d20008301d1000281d300830f7100f0ff3a00ec
:100d30008904d1000884d300600149008201780051
:100d4000c1adde00fb07b0008c0107008401370055
:100d50000960a0000800be008101370012022000d7
:100d6000724a8800f0ff2f00f1ff27007c01370056
:100d7000889fbe008a9fbe00010578000100e00048
:100d80000400350008003c000000e00020003200b4
:100d90000500370060001000e080180002003b00f2
:100da00001f02c001a0037000004be006011b800ea
:100db0006b0920000982cf00020039000882cf00b1
:100dc0000441b000694252000e00320008003b00ae
:100dd00082817100610164008904d1000884d3001c
:100de0008b05e8000442e800f9ff3a0005003700ef
:100df0000804440089844c008b05e9000442e900a2
:100e0000fbff3a005d0107000af0a70001f0a00017
:100e10004f05be004f04be00000006000001eb00bd
:100e2000020237000081eb0000023700839f680058
:100e30000100e00002003d0060001000e0801800aa
:100e40000300e00002003d0060011100e081190094
:100e50005f0207004f00e00002003b00600010004e
:100e6000e080180000000600140020001001370088
:100e70000001be00b60107000470a70003f0a10046
:100e800003f8a30013003a006509b1001000320016
:100e9000090035006928e100020035000100280042
:100ea0000000050000004000818048008502e90044
:100eb000fcff3a0000000600f88f420005003500f4
:100ec0008100d1000080d3008502e800fcff3a00d9
:100ed000000006008000eb00000005000001eb00b0
:100ee0004b020700040032000200200003f8230038
:100ef00001f0a700abfd0700000006000001eb00b9
:100f000043020700040032000200200003f823001f
:100f100001f0a600a4fd0700000006000400200068
:100f2000e30037000c00fa00889fbe008a9fbe00d5
:100f30008c9fbe00f90007000206be008405780001
:100f40000200be00020020003102070005003a0046
:100f50008b02b300120020002d02070001003a00ae
:100f6000f8856d000c01be00c60007000800be0039
:100f70009b0032000b08a3009e003a000df0a70072
:100f80000be0a00009f0a7000bf0a00009f0a10001
:100f90000801be00bb0007000bf0a6009500320060
:100fa00001003c000bd0a0008acf7500b2003300d6
:100fb0006000b8006250e10099003900a1003e00d5
:100fc0000b28a300a2003a000bf8a3000600320091
:100fd0000b58a300a70032000801be00a9000700bb
:100fe0000800be00940032000800be002f02070077
:100ff0000004be00050578000bf0a7000b30a6002a
:101000000bf0a1005b079800324f200053f3230040
:1010100095ff070005003d000800be0012002000fb
:10102000600107000004be000a05e9004a079800b5
:101030006150b9004eff0700008fbe000c01be00da
:10104000b8fd0700f4fe0700300798000100e0003b
:1010500002003d0060001000e0801800f2ff270051
:10106000820f5000e08f580064003e000c00be006c
:10107000e9fe070020079800f2072000820f5000c9
:10108000e08f580005003c0012f82f00f3ff2f00fe
:10109000820f5000838f580009003d000a00e000d5
:1010a0000300320001003c000201ea000205780062
:1010b0006000b800200798003a0798001900370030
:1010c0003e0090006100b90029ff0700809fbe002c
:1010d0000c00be004109dd004811de007208b100bd
:1010e000cb0107000005be001e01be008dfd0700fc
:1010f0004f01be002bfd0700809fbe000c00be000c
:101100000a01be0027fd07001e01be0085fd070085
:101110004f01be0024fd07008221270013f32300a6
:1011200080fd07000005be002e0090006100b900a0
:101130000fff070001f0a2000c01be001afd07001e
:101140000006be000800be00e50107000c01be005d
:1011500074fd07000a01be0013fd0700809fbe005a
:101160004a0007002e0590000af0a7000a05ea00d1
:10117000050037000800be000801be0069fd070039
:101180000004be000c00be000801be000a00a7005b
:1011900064fd07000006be000a05d100f5ff3a0015
:1011a0005e01900002e0a600030037000001be00cf
:1011b000360007008ffd07000004be004f00be0090
:1011c00033fe07000801be0056fd07003e019000f7
:1011d000f4000700de0590000bf0a70001f0a2006c
:1011e0004f06be004f05be004f04be000080fa004f
:1011f0000000060025000700f9ff37002700070060
:101200006000b8000bd0a7000bc0a0000be0a70047
:101210000bc0a2000bc0a70001f82700f0ff3700a9
:101220000df8a300020032001e000700190007009d
:101230000bf8a300eaff32000b30a70001f0a20078
:10124000e7ff37000df8a300f9ff3a00f7ff37007a
:101250000801be000b000700e6ff320001003c0061
:101260000df0a2006000b8000df0a7000900070013
:10127000dbff37000b000700f1ff2700f0ff2f0016
:10128000d7ff370001000700f7fe370001f8230001
:101290000000050001f827000000050020022000e2
:1012a0000100370010022000704a8800000006008c
:1012b000889fbe008a9fbe00841f78001700070029
:1012c0004f00780011003300f0ff2f00838f6c0077
:1012d00006003b00040565000a00a700080037006f
:1012e00009f0a6001000200008003700820f54000b
:1012f000838f5c00030039001000200001003e00d5
:101300000000200009f0a7000000ea004f05be0021
:101310004f04be000000e000000006000004be0014
:101320008b0007000003be000405be000200be00e3
:1013300087000700844f7500000006000200be0011
:101340006450e100050036006420e1000200360030
:101350000968a30001003a000800be000160a00077
:101360004f0678004f05be004f04be000000060087
:10137000f0ff2f00f1ff2700f9ff37008100200068
:10138000618055000b003d000b00200061fe2f0026
:101390000100e1001d0034008281710061016400e0
:1013a0008904d1000884d3000000e800faff3a0065
:1013b0007100200061006400030070000200600002
:1013c0000900320061044400e0844c000988a50053
:1013d000050032008b05e8006808e10002003a00d1
:1013e0008904d1000884d300f20f20000258e100e4
:1013f00005003d00c75ddd00f907b200898075007a
:1014000008007800000006000bf827008b00780029
:1014100000000500889fbe008a9fbe008c1f7800d8
:101420004f26dd00bdff0700c4ff33006120e1004f
:10143000430032006250e10041003e003e003900ae
:101440006420e1003c003200058255000f003b00a3
:101450000402e80038003a00800f5300818f5b00df
:10146000350034000800be0003f0a10001f0a60022
:1014700003f0a0000cf0a7004bfc0700b8ff3700fa
:101480000603430087834b000c46460000055300cb
:1014900081855b00020033000a03be000c00a0003f
:1014a0000402e900f6ff3b008505780006024300d0
:1014b00087824b0004003a006000b80009f0a700e2
:1014c00001f0a000a6ff37000002520081825a00fe
:1014d0000704e000040033000603430087834b0049
:1014e0008b05e900faff3700090578000604be0005
:1014f0000203be006011b800a0ff0700e00f520019
:10150000e08f5a000700350002003c000c08a300e1
:10151000040032000601be0003f0a0000cf0a7009a
:1015200021fc07000a85680001f0a1000af0a7006d
:1015300001f0a0008aff37000800be0088ff3700d6
:10154000100220000cf0a600704a880088ff3700c7
:10155000c70ade00f107b200f50fb2000800320042
:10156000e1cf4200020032000170a000240005001b
:10157000810f7000010032000408050044000500de
:10158000810f700002003a00140005008502e90096
:101590000000400081c04800fcff3b000170a0003b
:1015a000240005000003be00e9ff07006220e100ff
:1015b000020032000600be00000006008502410065
:1015c000e30f20000328e10005003c00a3fe2f00ec
:1015d0000328e10007003d0005002000010037005e
:1015e000f50f200020022000704a88006000b8003b
:1015f00008003700130020008381520005003d00e1
:101600008100d1000080d3008301e800fcff3a0094
:1016100005002000c72add00f107b20085807000b8
:1016200007f0a70001f0a00000000600889fbe00a0
:101630008a9fbe008c9fbe00820578000004be0019
:10164000c3ff07000800be006420e1000700390066
:1016500002003a00f1ff2700f0ff2f000160a00018
:1016600012022000724a8800550037006120e10014
:1016700003003a000b00a70001f8230050003700d8
:1016800001f0a1000200210093642400f6fd070090
:101690000800be0004003500b2fd2000930c2400b9
:1016a0001efc07000004be000005eb000b00a600b6
:1016b0004f0dde0001f0a1000004be0032982f00a3
:1016c00023ea230017fc07000001eb0003f02300ce
:1016d0000b00a70003f82300b3fb07004efd070033
:1016e0000000a7000a00a200a1fd07000b00e00017
:1016f000030032000200200003f02300a9fb0700d2
:1017000001f0a2000006be000200200093042400a5
:1017100004fc07000801be00a3fb0700809fbe0079
:101720000c00be0022a22a00d3a72300fdfb070065
:101730004f01be009cfb07000004be0001f0a100a9
:101740000200200003982300c7fd07000800be0028
:10175000190035000001be00f2fb07000006be00c4
:10176000b2c52900e3622300eefb070022222b0012
:10177000f3942b008cfb07000c01be00e9fb070073
:10178000e273280083c0230087fb07000c01be0022
:10179000e4fb070042aa2a00a3e22b0082fb070019
:1017a0000c01be00dffb07000801be00ddfb0700e7
:1017b0000801be007cfb07000a00a70001f0a200a0
:1017c0004f06be004f05be004f04be0000000600dd
:1017d0006022b800060220000000d0008180d20004
:1017e0000482d2008582d2000000a00002025200d2
:1017f00083825a00030031000202420083824a00c1
:101800000000a1000603e900f3ff3a000000060013
:10181000889fbe008a9fbe000003be004cff0700e9
:101820008505780082815200020020006220e100dc
:1018300004003a00f307b100040035007718e10016
:10184000040035000600be00140037006000b80038
:101850000f003700f50f2000faff2f008502d1009e
:101860000a85d3008301e900fcff3b00818462000c
:1018700000046500890f7400f2ff32008582ea00df
:101880000a85ea008184620000046500bbfe07004f
:1018900007f0a70001f0a0000081eb000200e000cb
:1018a0004f05be004f04be00000006000003be004e
:1018b00027ff07006220e100020032000600be00a0
:1018c00005000500e507b100f107b20004f02300b0
:1018d0008480700007f0a70001f0a000240005003c
:1018e000889fbe008a9fbe008c9fbe00efff07004e
:1018f000850478000005be006420e10049003e0038
:101900006220e10003003200090035000bf8a3005b
:10191000440032000bf8a30008003200100220003f
:10192000704a8800f0ff2f00f1ff27003d003700cc
:1019300001f82f00000020003a0037003d000700aa
:1019400018fb07000006be000a00be00324f200050
:1019500053f3230011fb0700060034000c00be0007
:10196000340007000ffb07000006be000a00be009f
:10197000020037008904e9000c00be002d000700ba
:1019800068fb07002b00070007fb07000001be00f3
:101990000c00be0097fb07000005be000001be0062
:1019a00060fb07000006be00a2f32300430d2c00dd
:1019b000fdfa0700809fbe000c00be00d2e32700a6
:1019c000d3f02b0057fb07004f01be0089fb070037
:1019d0000006be000a01be0052fb07000a01be005d
:1019e000f1fa07000006be006148b900e0fc0700fc
:1019f0000005be0032082800e3952b0049fb0700d4
:101a00000c01be00e8fa07000006be000a00be0096
:101a10000200280013f3230042fb07000c01be0064
:101a2000e1fa07004f06be004f05be004f04be009e
:101a30000000060003f0230002000500881f780064
:101a4000000478005001be004000be0004004000c9
:101a5000858048000601490087814900009cbe003e
:101a60000294be000400e1000588e1000690e10058
:101a70000798e10002003100680044001008e80007
:101a80004f04780000000600f4874700889fbe00de
:101a90008a9fbe008c9fbe008e1f78000205be008c
:101aa0000004be00d4b79f00e5b79f00f6b79f00c3
:101ab00087bf9f000000eb00c0b79f00b0b79f003a
:101ac000a0b79f0090b79f0080b79f000d04200033
:101ad000bfb097004fb09700000140000000e00049
:101ae0000f003d004f08de0000007100c0b79f00ee
:101af0009e00070001003d0012002000a100070029
:101b000001003d0012002000a6000700b100070000
:101b1000b60007000f004000c8ff07002200370092
:101b20004f08de0000067100ccb79f008f00070051
:101b300001003d00120020009200070001003d005e
:101b40001200200097000700a20007000fb29700c4
:101b50009fb297002fb39700bfb39700a90007006b
:101b60000000520081805a0002015b0083815b000b
:101b700080b79f0091b79f00a2b79f00b3b79f00a7
:101b80000007eb009f0007000020e10001a8e10032
:101b900002b0e10003b8e100010031001e002000a6
:101ba0000e005600c0b79f004fb297000400e0003f
:101bb0000700350010002000010020006011b8006f
:101bc00008047000898470000a0571008b8571001b
:101bd0008d06e900beff3a000400e00003003d006e
:101be000820007000f00400094ff07004fa89700f5
:101bf0000000e00004003a000fb497009fb4970083
:101c00002fb59700bfb59700940007004f077800e5
:101c10004f06be004f05be004f04be004f01b1008d
:101c200000000600881f780018002000881f780038
:101c300095ff07008f87e9004f0478000000060039
:101c4000801feb0090ff07008f87e900000006006f
:101c5000889fbe008a9fbe008c1f78006e00070020
:101c600007003d0073000700e00f5b00e08f5b00a2
:101c700007003d00320007000006eb0004003700bb
:101c80003400070002003d002a0007001c0020006d
:101c900072000700e3ff07000203be000002be005f
:101ca0000c00e00001003200220007000400be002a
:101cb0000601be004f0678004f05be004f04be006f
:101cc00000000600889fbe008a9fbe008c1f78001f
:101cd0005100070005003d0056000700e00f5b00c3
:101ce000e08f5b0006003d0004003700190007008c
:101cf00003003d006000b8006011b800100007004c
:101d000056000700ceff07000203be000002be001f
:101d10000c00e00001003200060007000400be00d5
:101d20000601be004f0678004f05be004f04be00fe
:101d3000000006006000b8006011b8000000370025
:101d40000402500085825800060359008783590019
:101d5000000006000006eb00e00f5200e08f5a0082
:101d6000e00f5b00e08f5b00000006000180400098
:101d700090b79f000001eb008fb097000100e000da
:101d8000000006000200700090b79f000180400034
:101d900080b79f000001eb00ffa897000100e00062
:101da000000006000200700080b79f000180400024
:101db0006faa9700cf20de0001007000f0af9f00f7
:101dc00004024200250007004f18de0000027200e6
:101dd00000000600e4af9f000804440089844c0022
:101de0000a054d008b854d00000006003fb29700ac
:101df000cfb297005fb39700efb3970000fe2f00bc
:101e0000000006003fb09700cfb097005fb1970089
:101e1000efb19700000006000205be000004be00fe
:101e2000e00f5000e08f5800e00f5900e08f59009c
:101e3000000006006000b8006011b80008045000ff
:101e4000898458000a0559008b8559001c00200020
:101e5000e00f5200e08f5a00000006000800be00ac
:101e60000a01be00000006002800fa00889fbe009c
:101e70008a9fbe008c9fbe0003866b000f02070086
:101e80000028a30064003a000128a30067003a007c
:101e90000008a30062003a000108a30065003a00b0
:101ea0001e009000be08900081064000ed3fb1008a
:101eb000f4805700ee019000111ab8008e099000ce
:101ec000311bb8009e099000311cb800511db800ac
:101ed000f485570046000700fe0190003a00070015
:101ee0008b85e8003e0007008e0990004000070047
:101ef000ee019000340007008b85e80038000700f1
:101f00008e099000400007009e0990001b18b80041
:101f1000890440000a854800fe0190003400070053
:101f20008b85e80038000700ee01900030000700c4
:101f30008e0990001b18b800890440000a854800eb
:101f40000a98a30008003a000402420085824a0071
:101f500006034b0087834b0008044c0089844c0027
:101f60000a054d008d06e900848272008502730027
:101f70004c3add008502720001003200150020009d
:101f8000443ade001400b2004538de00cb45dd00e7
:101f90000b007000c540de00cb4ddd008b80700073
:101fa0004549de00cb55dd000b017100c551de0057
:101fb0000d037800da01070003f0a1000cf0a70080
:101fc00003f0a000d10137001b18b80085024000c3
:101fd00006834800e0834b0060044c000700370094
:101fe0001b18b8000603400087834800faff37003b
:101ff0001b18b8008703400008844800e0844c00a8
:1020000060054d00000006001b18b80008044000e1
:1020100089844800faff37000108a300b8013a009c
:102020005800be005801be00e3ff37000008a300bf
:10203000b3013a0009047800f9ff37008103780002
:1020400043fd07000001be006000b8000478a30053
:1020500013003a006220e10015003e000d00390037
:102060008301d1000281d3008180d3008301d1009c
:102070000281d3008180d3008301d1000281d3008b
:102080008180d3000538b000c42add00f300b2001f
:102090008381720007f0a70003f0a0000000060093
:1020a000f3ff2700f2ff2f006110b900fbff37009c
:1020b00003ff2700f7ff37008f1fd100c40107007f
:1020c0008f87e9000000e00000000600801feb00a1
:1020d000bf0107008f87e9000000e0000000060054
:1020e0001400fa00889fbe008a9fbe008c9fbe002d
:1020f0000005be000206be00680047000c90be004e
:102100000a90be00db0107006400e1001a00320003
:1021100016003e006100e1001a0032006e049000db
:10212000fe0490000e0b90009e0b90006011b80012
:102130009e0590000b38b100d5012000828171000e
:10214000610164008703d1000683d3008984d30032
:102150000884d3008502e900f8ff3a0087fc0700f5
:102160000df0a70001f0a00068013700f1ff270083
:10217000f0ff2f006501370001f827000000200064
:10218000f7ff37006000b800f5ff3700c7fd070014
:102190000509780000000600809feb008c01070015
:1021a0008f87e9000000e000000006002800fa0028
:1021b000889fbe008a9fbe008c9fbe0007067800e5
:1021c000878669000c003b000304780087047800d0
:1021d00008f0a10009f0a100840f5000858f58007d
:1021e000860f5900890f5c00030033000cf0a20039
:1021f00001003a000cf0a100300107006400e1008a
:102200005f003200780147006408e100610032009d
:102210006c014700748557003200be001201be00f9
:102220003a04be001a05be001e039000be0a9000cc
:102230008503530006003d000004fd008104fd00fd
:102240000205fd008305fd008703ea000503780011
:102250000df8a3000400320060041400e0841c00a8
:1022600060051d00e0851d006022b8007d03200090
:102270000d38e1008006eb000b0039004433dd002f
:10228000f300b200830173003900370084827200ca
:102290000d027800e10664008b85d1000a85d30029
:1022a0008984d3000884d3008703e900f7ff3b004b
:1022b00008004000898048000a0149008b814900dc
:1022c00004003b0060001000e0801800600119006d
:1022d000e08119000358a300090032008d827200ca
:1022e00084827200610260008301d1000281d30008
:1022f0008180d3000080d3000603e8001b00370074
:102300000348a30017003a000600e000170034005d
:102310000603e9000d00a30000004800818048008a
:1023200002014900838149000348a3000f003a00dd
:102330000600e000090034000603e9000000400048
:1023400081804800020149008381490001003a0070
:102350000003eb000348a300f5ff32006022b80041
:10236000020037008482720061826600ec00070080
:1023700003f0a1000cf0a70003f0a000e300370079
:10238000640147006408e10002003a000df8a30070
:10239000db003a003200be001201be00db00370055
:1023a0001400fa00889fbe008a9fbe008c9fbe006a
:1023b0000004be000205be00680047000a90be008f
:1023c0000890be002b0107000070a7000bf0a100d1
:1023d0000bf8a30020003a009e0990000e0990001f
:1023e000fe0090006e0090009e029000344320009a
:1023f00084825200c50032000a003c00b4fc2f0069
:102400000428e100140034008301d1000281d300cc
:102410008180d3000080d3008502e800faff3a00f3
:10242000ba003700b40020000428e10007003c0097
:10243000000040008180480002014900838149007a
:102440008502e900faff3a00b000370003002800d7
:1024500002002000010037006011b8006000b800e1
:10246000aa0037002800fa00889fbe008a9fbe009d
:102470008c9fbe0003866b00900007006400e100a3
:10248000440032006408e1004a0032006100e100cb
:10249000460032006108e10049003200ec064700c6
:1024a0006000b8003d02be003d03be00f486570048
:1024b0006011b8003d04be003d05be007d03200054
:1024c0000b0037000000a0008d06e9001300320069
:1024d0000402420085824a0006034b0087834b00ba
:1024e00000004000818048000201490083814900ca
:1024f0000802520089825a000a035b008b835b004a
:10250000f0ff3b000802420089824a000a034b00a8
:102510008b834b008d06e900edff3a008482720048
:1025200086827200f707b2008782720001003200d3
:10253000150020001e0490003e0b9000060354007e
:10254000e63fb0000368a300070032000000a700c8
:102550000500a0008301d1000281d3008180d30057
:102560000080d3000603e8008301d1000281d3007c
:102570008180d3000080d3000002eb000482d200ef
:102580006700070003f0a1000cf0a70003f0a00013
:102590005e003700640247006408e1005800320022
:1025a0003400be003401be00f6ff37006108e100d0
:1025b000530032006011b8006000b800f1ff37002e
:1025c00003ff270002002000fbff3700889fbe00aa
:1025d000830478000300e0002c00350003003c0079
:1025e0000082700004027100260032003643200091
:1025f000c50020008383cf000a0039000541b100e7
:102600008283cf00070039000541b1008183cf00ec
:10261000040039000541b1008083cf00010039007a
:102620000541b10085c353006022b800120032009a
:102630000a003b0084827200610260008301d100c5
:102640000281d3008180d3000080d3000603e8001c
:102650008743e800f7ff3a0007003700000040001a
:102660008180480002014900838149000603e90096
:102670008743e900f9ff3a002900070009f0a700a5
:1026800003f0a0004f04be00000006006000100030
:10269000e080180060011900e0811900d3ff3b00c1
:1026a000033e2c00f7ff370007f0a200bffe370003
:1026b0004f89de0082017800c4ff370068044700bc
:1026c0000294be000094be00fc0447008694be0045
:1026d0008494be00090078006600070008007800b6
:1026e0006400070099007800814f70000b003b00e8
:1026f0000800be00860007004f00b100030037004d
:10270000f3ff2700f2ff2f006110b9004f06be0053
:102710004f05be004f04be000080fa000000060016
:102720001800200057002000080453000d003d0051
:102730000600200097fc2f000740e1001e00340037
:1027400084827200610260008301d1000281d300a3
:102750008180d3000080d3000804e800f8ff3a002d
:102760004700200061046000050474000404640054
:102770000d00320061004000e08048006001490027
:10278000e081490003b8a500070032000603e80015
:102790006538e10004003a008301d1000281d300d2
:1027a0008180d3000080d300f87f20000830e10052
:1027b00003003500080378006000b8006011b8001d
:1027c0004433dd00f300b200830173000000060013
:1027d000889fbe008a9fbe008c9fbe000404be007e
:1027e0000605be00809fbe00829fbe005600070007
:1027f000040678000800be000a01be00520007006f
:10280000840678004f03be004f02be008d4f760055
:102810007fb0970013003300f0ff2f008b8f6b0009
:1028200006003b000d0666000c00a7000a003700fa
:1028300007f0a600100020000a003700880f5200a1
:10284000898f5a008a0f5b008b8f5b000300390071
:102850001000200001003e000000200007f0a7004b
:102860000000ea004f06be004f05be004f04be0048
:1028700000000600800078005002be005003be0039
:102880004439de00f700b200f37f2000030161004d
:10289000090032000218e10016003a0085017200ba
:1028a00083017300838173000008200015003a0043
:1028b000400020001300370085017200830173007f
:1028c0008381730005003a0004a8be0006a8be007c
:1028d000100020000b0037000201e9000402420052
:1028e00085824a0006034b0087834b000748a300fc
:1028f000f9ff32000740a00004a8be0006a8be00f1
:10290000200020008000980092009800000006003f
:10291000e48240001078a300070032006402400007
:102920001178a3003400be001401be000400320080
:102930000330a700000006003500be001501be00f0
:102940000330a0000000060005ff2700058261009b
:10295000070032000428e1000100320024000500d5
:102960000600070001003a004400050004080500c5
:1029700002000700f9ff3a00140005006f826100b1
:10298000810270008502710085027200000006005d
:102990000c00fa00889fbe008a9fbe008c9fbe007c
:1029a0000004be0002002000037024005df7070051
:1029b000c0b79f00d1b79f006011b8000800be00eb
:1029c000f6f607000000e0003a0035004fb097002f
:1029d000dfb0970041f907008ff807000005be003f
:1029e000e3f807000006be000200200003f0230009
:1029f0004cf707000004be0038f907000001be00d4
:102a00000800be00e7f607000001be00e6f607007a
:102a100081f80700e0b79f00f1b79f000c01be00ee
:102a20004fb09700dfb09700def607000004be004d
:102a30000200200003f02300d8f607000000e000a9
:102a4000120034000200200003f823000c00be0036
:102a5000d5f6070070f807000005be00000028004a
:102a6000800f5500e08f5d0002003500faff27005f
:102a70000b0020000a0078004f06be004f05be0084
:102a80004f04be000080fa00000006000200200093
:102a900003f023000800be00f3f807000000e00088
:102aa000eeff3a006fb097000000e000ebff32004d
:102ab000e4ff37004fb09700dfb097000ff9070031
:102ac00055f807000005be00a9f807000004be0085
:102ad0004fb19700dfb1970010f907000000e00048
:102ae000060032000200200003f823000800be00a8
:102af000acf6070048f807000005be000a00be005b
:102b00009bf807000006be000200200003f023002f
:102b100004f707000004be00f0f807000001be0043
:102b20000800be009ff607000001be009ef60700e9
:102b300039f8070080bf9f0091bf9f000c01be00c5
:102b40004fb09700dfb0970096f607000004be0074
:102b50000200200003f0230090f607000000e000d0
:102b60000d0034000200200003f823000c00be001a
:102b70008df6070028f807000005be0000002800b9
:102b8000f1ff2f00800f5500818f5d00b9ff3d00e0
:102b90000005be00b7ff37000200200003f023004d
:102ba0000800be00b0f807000000e000f3ff3a00a4
:102bb0000fb897000000e000f0ff3200e9ff370097
:102bc000889fbe008a1f7800000578000200200060
:102bd00003172c000000200001002400d1f807009a
:102be0000004be006150b90061f807000801be0092
:102bf000ccf607004f0578004f04be000000060029
:102c0000889fbe008a9fbe008c9fbe004400f800d3
:102c1000070f2000270288003400f80007f02f007b
:102c20000338e10004003200270280004700b300af
:102c300027028800a3018800811f78001900200066
:102c4000804cdd001300200002047800800678002c
:102c50008904d100424edd00010578000302e9003d
:102c600004800800170000008a0546004218dd00b5
:102c70000902e900048008001000000000000000c4
:102c80004620c3003b025200df35c100080440006b
:102c90001381c200ab825200264dc5003e85c400a0
:102ca000bb00cd00bb80cd003a00ca002a80ca001c
:102cb0000700c9000580c900ba00cd00ba80cd0068
:102cc0000a054600020478008301d0008d06e90061
:102cd000dfff3c004f0078003400f9004400f900a9
:102ce0004f06be004f05be004f04be0000000600a8
:102cf0004600f8005000f800022020003202880050
:102d000002002800130020008019dd0002817100fc
:102d1000820288000100780001017800260020006e
:102d2000470020008301e90003800800070000003d
:102d30000110e100040034001102be009208780086
:102d4000e2307b000489be008780400012197800c1
:102d50005000f9004600f9000000060080007800ed
:102d60003004e000feff3a00010050000000e900de
:102d7000000006000c00fa00889fbe0000047800e6
:102d8000cfb09700f0ff2700d0bf9f008004eb007a
:102d900099bf9f0088bf9f00a8bf9f00200c200004
:102da000b0bf9f0078815700708057005a0107001c
:102db0000fb89700094878000fb897000804500032
:102dc000080078004f04be000080fa0000000600f2
:102dd0000c00fa00a0bf9f00c0bf9f00dfff0700ec
:102de000b0bf9f00f0bf9f00100c2000d0bf9f001d
:102df00074815700efb097006c8057007006070091
:102e00000080fa00000006000001780000c2b30054
:102e1000010037000201e8009240780080cf5000a6
:102e2000fcff3200e9cf5000faff3200d0c2b300fd
:102e300080cf500003003a000201e80014c0b30044
:102e4000050037000042eb00b0c2b30080cf500055
:102e500001003a000201e8008000eb0005fd2f00b0
:102e6000040037006a08b900008041008500400076
:102e70000201e8009201fb0005804100e90f5000cb
:102e8000f8ff36000404e000010032008100ea008f
:102e90000100780000000600889fbe008a9fbe00e7
:102ea0008c9fbe0000017800417822001100e000f4
:102eb0000b003a0080782200203c8900003c890009
:102ec000413c8900113c8900214090000004a00091
:102ed000a0409800614090000004a000e0409800ed
:102ee000e7004100c208de00c20cdd00143c810096
:102ef000cd3d2100c04521000d05500022002000dd
:102f0000811f7800110009000205d8000006780032
:102f1000cf007800c308dd00e48540008001eb00ad
:102f2000c63d2100457822000100370001027800eb
:102f3000244090000008a300020032000a0037007d
:102f4000110a780094007800214090000008a30046
:102f5000fbff320009014200828f5000020039005d
:102f6000840f51004600310094007800848f500097
:102f7000eeff3e00868f500002003900858f500022
:102f8000eaff3900003c8100800f52004f003a00f8
:102f9000858f50004d003a008301e800e18f510019
:102fa000e2ff36008c8f5400040036008a8f5400f4
:102fb000020031000b04780012003700614ab800ab
:102fc0006151b900b0ff2f00010020000200500045
:102fd00083805800800f5200818f5a000200350014
:102fe00009047800070037000d805400f2452100e5
:102ff00002004000110009000a80d8000a80b900d0
:103000000004780008007800aff407008001780021
:10301000e10f40002d003200003c810003087800e1
:10302000023c810064004100a2409000808f51006a
:10303000020032000104a000010037000104a100d9
:103040002141980008804100640050008009780008
:10305000003c89004278220002087800013c81008f
:10306000214090000004a000a04098002340900060
:103070000004a100a041980002027800a7ff3700d9
:10308000123c8900828f50000900360092007800bf
:10309000e0772200a241900003487800e13b8900dc
:1030a000140978008040eb00103c8100214098001a
:1030b000103c8100000a7800244090000004a00029
:1030c0002042980064004200010037000000eb003d
:1030d0004f06be004f05be004f04be0000000600b4
:1030e00064005000103c8900a04090000104a10041
:1030f0002140980000000600889fbe008a9fbe0005
:1031000000057800e401500013001000c285de00c5
:10311000234090000008a30004003200133c890003
:10312000234090000004a100a04198000100780015
:1031300059ff0700000478000000e000170032008b
:103140008a0f50001500320060b897000800500048
:10315000c284de00898f55000100360089057800a1
:103160004259dd008a0078000800780062070700f5
:103170008a0f5400090031004248dd00000044007d
:103180008a0f5000050036000a005000000044007d
:10319000e23b8100f33b81000288be00080078001a
:1031a0004f05be004f04be0000000600000478007a
:1031b000580707000800780059f40700889fbe00f0
:1031c0008a1f7800804078000004e00021003d0064
:1031d0008040ea00d0c6b30080cf50000900340020
:1031e0008104fb0042062000110009008204d8007f
:1031f00000017800010078004311dd004a1321002e
:103200001f0037000100fb00431321003900370085
:10321000a2002000110009000200d800000178007f
:10322000010078004311dd00030141004300dd008f
:10323000030040003002be002003be004220900088
:10324000d2209000f22190006221900006fb07003e
:103250002e003700d0c6b30080cf500023003400ca
:103260008104fb0042062000110009008204d800fe
:1032700000017800010078004311dd004a1e2100a2
:103280000a014100a8002000110009000800d80030
:103290004300dd000a00400040229000d022900050
:1032a00060239000f02390000288900092889000a4
:1032b000b289900022899000ebfa0700801f780005
:1032c00001027800110009008804d8000102fd0005
:1032d0004f0078000402fb004322dd000a02420096
:1032e0005403be004402be00d8ff37000100fb00bb
:1032f000431e2100eacf5000c5ff3c004300dd0023
:10330000030040005001be004000be004f057800a1
:103310004f04be00000006008f03b000889fbe006f
:103320008a9fbe008c9fbe008e1f7800e0b79f0072
:10333000f1b79f0082bf9f000000eb00a0b79f0085
:10334000e60437008001eb0050c2b30080cf50008c
:10335000090032000100fb00efb09700fb060700f8
:10336000e10f4000dd043200afb097008100e800bb
:10337000a1b79f00d90437007fb197009240780031
:10338000d0c2b30080cf50000c00320007003c00d8
:103390006d40500080cf50000d0032006b40400067
:1033a00080cf500019003a000e00370000c3b30070
:1033b00080cf500015003a000f0037000330a00006
:1033c0007fb297000402e800f4b79f00eaff3700dd
:1033d0000300a000ffb297008502e800f5b79f0048
:1033e000e5ff37000310a0007fb697000c06e80049
:1033f000fcb79f00e0ff37000320a0007fb09700dc
:103400000000e800f0b79f00dbff37000318a300bf
:10341000010032000300a1000338a30001003200c4
:103420000320a1000100fb0002fd2f00020040006c
:10343000e90f500010003e008000eb00c1b79f0074
:10344000020278004fb197006a10b900ffb29700ee
:103450001501fb000001410004014100c2b79f00bb
:103460005500fb00f5b79f0004004000e90f500035
:103470000d003e00f3ff37000006eb00ccb79f00c5
:10348000a0c2b30080cf500007003a000fb89700e9
:10349000c000780080bf9f00c1b79f007fb1970038
:1034a0000201e800f2b79f00e0c2b3007fb29700cc
:1034b000944f100021003a00830678000de0a00030
:1034c0008400e80064405000914f10000400320076
:1034d000f1b79f008002eb00b5b79f0010003700e6
:1034e0000fbe97004c0078008cbf9f00b0b79f00c4
:1034f000ffb097008180e800f1b79f00130037000c
:103500003fb297006a20b90000004100030040006c
:10351000b0b79f00ffb297008502e800f5b79f00a3
:103520007fb697001c01fb0003fd2f000300410044
:10353000e90f5000f2ff36000400370083067800e0
:103540000dc0a0000000eb00b0b79f007fb1970056
:10355000b2407800f2b79f00c17f9f00c0c6b300a1
:1035600080cf50002700320014003c00684050001b
:1035700080cf50009d00320009003c006c4050009c
:1035800080cf5000290032006b40400080cf5000b7
:10359000720032000104e000560432008e00370051
:1035a00060c6b30080cf50001c0032006340400072
:1035b00080cf500088003a008c00370030c7b3003d
:1035c00080cf50001c00320007003c0064405000d7
:1035d00080cf5000130032000040e80080cf500040
:1035e0007d003a001100370050c7b30080cf500073
:1035f0007d0032006340400080cf500076003a00ea
:103600000b003700000028000d48a30001003a001d
:103610000001200080867600ccff37000da0a000be
:10362000720037000d60a000700037000d50a00040
:103630000d70a0006d0037008fb99700430078002f
:1036400083bf9f00000478000000e00001003a0002
:10365000287522008004eb00010037008104e80097
:1036600089007800088044001004e000fbff3a0065
:103670003fb297000400e00003003200890f5200bf
:1036800001003100840478000007eb00cfb29700fe
:10369000898f520001003600098752004368de001e
:1036a000e106600019003a000d06780009003700b5
:1036b000efb097000002200024060700e10f400051
:1036c000030032002fb097000000e800a0b79f0071
:1036d0000c06e8008e0f5600f5ff3a000087eb005d
:1036e0000a003700880078003100fb0001047800f0
:1036f000efb0970015060700e10f4000030032000d
:10370000afb097008100e800a1b79f000900e90071
:1037100080047800e10f4000f2ff3a000006eb0061
:103720000d00e0000a003a00ec033700efb097000c
:103730000002200005060700e10f400003003200f0
:103740002fb197000201e800a2b79f000c06e80025
:103750008e0f5600f5ff3a00e00337008fb997004f
:103760004300780083bf9f00cf80de000101780016
:10377000820178000205be000004be000203be0004
:103780000002be004822de00482edd000402760062
:10379000c47f9f000d48a3000a0032000404e0002b
:1037a00008003200e14f420006003200d1fb2f003a
:1037b0000180470004487800184098002900200044
:1037c00002003700d07f9f0019002000d2fb2f009d
:1037d00002844700a6ff3700c3fb2f000384470085
:1037e00019002000a2ff37000d0cb300007020006c
:1037f00000826600270232000dc8a30002003200da
:1038000064002000b4b79f000d48a30005003200fb
:103810000fba97004401be004400be0084bf9f0061
:10382000040037008fba97004500be0085bf9f0097
:1038300002fa0700e0af9f00f1af9f0082b79f0040
:1038400093b79f006022b8006033b8006fa897005c
:10385000ffa897000fb197009fb1970016fa0700d5
:103860000000e0000a003d006fa89700ffa8970045
:103870000fb197009fb1970003f0a200e0af9f0047
:10388000f1af9f0082b79f0093b79f003d00b30048
:103890000000eb0080a79f006022b8006033b800f2
:1038a0006fa89700ffa897000fb197009fb19700ee
:1038b00006fa07000000e000340032006fa897000d
:1038c000ffa897000fb197009fb1970004fa070077
:1038d00003fc2f00038147002cfa07000fa097007c
:1038e0000000e9006300b900a200200011000900f7
:1038f0000200d8008000fd0081a79f000100e000c9
:1039000002003d000100e90080a79f000fa497007e
:103910000840ea0029fe07006faa9700ffaa970057
:103920000fb397009fb397004ff90700a0af9f0018
:10393000b1af9f00c2af9f00d3af9f006022b8001d
:103940000600200007ff2300dbf907000000e0006d
:1039500002003d000800e9000b0037006022b800bb
:1039600006002000470224002fa89700bfa8970058
:103970004fa99700dfa9970007fa07000000e000b1
:10398000020035000800e80080a79f003fb29700c2
:10399000f80f520057003c00d0c6b300804f5200d1
:1039a000290036000485fb004206200011000900b2
:1039b0000285d80000017800010478004311dd0081
:1039c0004b1321000b0141006022b80006002000cb
:1039d00007fe23000288900092889000b289900030
:1039e0002289900020f90700a9002000809fbe00d6
:1039f000110009000984d800000478004f00be00bf
:103a00004344dd000b04440048229000d82290007b
:103a100068239000f823900013f90700801f7800b6
:103a200001027800110009000985d8000102fd009b
:103a30004f0078004322dd000b0242005403be0019
:103a40004402be001f0037000480fb004913210020
:103a5000ea4f520014003600a200200011000900b5
:103a60000280d80000017800010478004311dd00d5
:103a7000090141006022b8000600200007fe230073
:103a800042209000d2209000f2219000622190000c
:103a9000f5f807004344dd00090444003802be0085
:103aa0002803be00070037004300dd000900400086
:103ab0006022b8000600200007fe23005001be006f
:103ac0004000be00e8f807000002be000203be008e
:103ad0006fa89700ffa897000fb197009fb19700bc
:103ae000b2f90700e0af9f00f1af9f0082b79f00df
:103af00093b79f000fa49700e90f540015003c00f6
:103b00006022b8006033b8006fa89700ffa8970044
:103b10000fb197009fb197006cf907000000e0001b
:103b2000320032006fa89700ffa897000fb19700ee
:103b30009fb197001afa0700e00f5000e08f58007d
:103b4000e00f5900e08f590028003a00e10f5400bf
:103b5000260034000400200005002e00b6e02200fc
:103b6000170124002fa89700bfa897004fa997001e
:103b7000dfa9970050f907000000e00002003d00b7
:103b800073005400010037007200540080a79f00aa
:103b90000fc0970089fd0700a0af9f00b1af9f0045
:103ba000c2af9f00d3af9f000002be000203be0061
:103bb0006fa89700ffa897000fb197009fb19700db
:103bc00028fa0700f6f907000205be000004be004f
:103bd0006000b8006011b800a0a79f00b1a79f00c7
:103be000c2a79f00d3a79f002e0037006fa89700a1
:103bf000ffa897000fb197009fb19700e8f9070061
:103c00000205be000004be00e00f5000e08f580027
:103c1000e00f5900e08f5900020035006bfa0700f1
:103c20001300370010002000010020006011b800d0
:103c300008006000898060000a0161008b816100da
:103c40008b03d1000a83d3008982d3000882d3007a
:103c50000000720081807200020173008381730092
:103c60005afa07000002be000203be004ff9070027
:103c70000002be000203be006fa89700ffa89700d5
:103c80000fb197009fb1970087fa0700a0a79f0088
:103c9000b1a79f00c2a79f00d3a79f000000eb0021
:103ca00080a79f0014c0b300452921000b003700f6
:103cb0000400fb004300dd00050040005001be0091
:103cc0004000be000040e10001c8e10002d0e10078
:103cd00003d8e100030039000442e800f44f520029
:103ce000f3ff3a00c47f9f000400fb00bfb09700c1
:103cf000008040008fa09700010040004fb1970066
:103d000000075100bfb197000300e000010032003e
:103d10000e07e90063806600010032000e07e9002b
:103d20000d28a30026003200e18066000d18a300d4
:103d30000c003200d00220000100e00001003a0037
:103d40000080e900efb0970080040700e10f400019
:103d5000180032002fb297000402e800a4b79f00b9
:103d6000140037000100e00012003200efb09700ad
:103d70000002200075040700e10f40000d00320032
:103d8000afb297008502e800a5b79f000900370091
:103d9000efb09700000320006c040700e10f400023
:103da000030032002fb697000c06e800acb79f0066
:103db0000e07e9000e00e000f5ff3c003d00370073
:103dc0000d38a3000a0032000b003700efb0970057
:103dd000000220005d040700e10f400003003200f4
:103de0002fb097000000e800a0b79f000e07e90081
:103df0000e00e000f5ff3c00e18066000d18a30016
:103e00000c003200d00220000100e00001003a0066
:103e10000080e900efb097004c040700e10f40007c
:103e200024003200afb097008100e800a1b79f00e6
:103e3000200037000100e0001e003200efb09700c4
:103e40000002200041040700e10f40001900320089
:103e50002fb197000201e800a2b79f0015003700bc
:103e60000000fb004300dd0041292100010040006b
:103e70003002be002003be000800be000a01be00e2
:103e800068f70700a4002000050020006033b80098
:103e90006bf707000003b000efb097002b0407009a
:103ea000e10f400003003200afb197008301e8004a
:103eb000a3b79f004f7a97000440e900c07f9f009e
:103ec000e14f4000e6ff3a000b003700efb09700eb
:103ed000000320001d040700e10f40000300320032
:103ee000afb297008502e800a5b79f000fa097002a
:103ef0000000e90080a79f000fa097000000e000ed
:103f0000f2ff3c003fb6970020c1b300f20f56000d
:103f100001003c006fe09700c07f9f00cf789700c2
:103f20000100fb003fb1970000005100e0a79f0097
:103f30000104e00008003200efb09700e00220002a
:103f400002040700e10f400003003200afb1970008
:103f50008301e800a3b79f004f78970097fc070004
:103f60000002be000203be002fa09700bfa0970072
:103f70004fa19700dfa19700bbf7070008f90700e2
:103f80001e0037000000fb004300dd004c2921002b
:103f90000c0040003002be002003be000800be003e
:103fa0000a01be001ff70700a40020000500200042
:103fb0006033b80022f707000003b000efb09700ad
:103fc000e2030700e10f4000030032002fb2970028
:103fd0000402e800a4b79f00cf7a97000500fb0019
:103fe0004300dd000c0040003002be002003be0094
:103ff0000800be000a01be0011f707000205be005e
:104000000004be004f7e97000c40e900c07f9f0077
:10401000e14f4000dbff3a000006eb0009003700eb
:10402000efb0970000032000c8030700e10f400035
:10403000030032002fb097000000e800a0b79f00f7
:104040000c06e800efa09700810f5600f4ff3a003d
:104050000d38a300a10132000e00e0009f013400e2
:104060000006eb00efb0970000022000b703070046
:10407000e10f4000030032002fb197000201e80079
:10408000a2b79f000c06e8008e0f56009301320085
:10409000f4ff37000d007800000cb20028003a0051
:1040a0000d00e00005003d008fb997004305be00fc
:1040b0004304be0083bf9f00140037000d48a300d7
:1040c0000b0032000fba97004400be0084bf9f006f
:1040d0004f89de00cf91de000002be0002037800af
:1040e000820378000605be000404be000700370006
:1040f0008fba97004500780085bf9f0000047800c4
:10410000cfc4de00090578008a057800e00f54006e
:10411000e08f5c00e00f5d00e08f5d0020003d005f
:104120003d00b3006000b8006011b8000804500002
:10413000898458000a0559008b85590018003700fa
:104140000d00e00005003d000fbe97004c05be00cd
:104150004c04be008cbf9f00110037000d48a30027
:10416000080032008fba97004500be0085bf9f004f
:1041700004017800840178000205be000004be003e
:10418000070037000fbe97004c0078008cbf9f00df
:1041900000047800090020000a0020000b00200025
:1041a0003fb097000000e00007003a00e00f540025
:1041b000e08f5c00e00f5d00e08f5d0002003a00e0
:1041c00011002000b1b79f000d0778000e0cb2005f
:1041d00000042000800f57002f00320003003c0035
:1041e0000e00e000070032003f003700000820000a
:1041f000800f570014003200000c2000800f570081
:1042000039003a0014c0b300452921000b003700e3
:104210000400fb004300dd00050040005001be002b
:104220004000be000040e10001c8e10002d0e10012
:1042300003d8e1002b0039000442e800f44f52009b
:10424000f3ff3a00270037000001200001002000a2
:104250006011b80014c0b3000040e10001c8e100e3
:1042600002d0e10003d8e1001e0039004500200023
:104270000000d0008180d2000281d2008381d20070
:104280008502e900faff3a000442e800f04f5200cc
:10429000f1ff3a00130037008000200001002000e9
:1042a0006011b80014c0b3000040e10001c8e10093
:1042b00002d0e10003d8e1000a0039003c002000f0
:1042c0000000d0008180d2000281d2008381d20020
:1042d0000c06e900faff3a000442e800f54f5200ec
:1042e000f1ff3a00c47f9f00cf7897000100fb00e8
:1042f0003fb19700820f500002003d00c27f9f0037
:1043000004003700bfb19700808f510001003d00cd
:10431000b0b79f004fb297000400e00004003200e5
:1043200063806600020032000402e900c4b79f0007
:104330000de8a3000b003200cfb297003fb6970004
:104340008c8f520003003c000000eb00c0b79f00c0
:1043500004003700cfb097003fb197008280500033
:10436000c1b79f00cf7997000300fb000002eb006c
:1043700094a79f00cfb29700808f520002003400b4
:104380000080520090a79f000d28a3003700320044
:10439000e18066000d18a3000c003200d00220005e
:1043a0000100e00001003a000080e900efb0970052
:1043b000e6020700e10f40000e0032002fb6970022
:1043c0000c06e800acb79f000a0037000100e000cf
:1043d00008003200efb0970000022000db02070067
:1043e000e10f4000030032002fb097000000e8000a
:1043f000a0b79f009fa097000100e0000f003200cf
:104400000006eb00efb0970000032000cf0207008a
:10441000e10f4000030032002fb197000201e800d5
:10442000a2b79f000c06e8009fa19700830f5600db
:10443000f4ff3a000002eb0094a79f00bfb2970080
:10444000c328dd00c02821008080400091af9f007c
:104450004228dd006400500080af9f006328b9004f
:10446000f0a79f0063065000820037001fa6970048
:104470000c00e00011003200688066000f003a0076
:1044800000067800efb0970000022000af0207009e
:10449000e10f4000030032002fb097000000e80059
:1044a000a0b79f000c06e8009fa09700810f560060
:1044b000f4ff3a000001eb0092a79f00e180660044
:1044c0000d18a3000c003200d00220000100e00013
:1044d00001003a000080e900efb097009b0207005e
:1044e000e10f4000d5ff3200afb197008301e80033
:1044f000a3b79f00d1ff37000100e000cfff3200db
:10450000efb097000002200090020700e10f40008a
:10451000caff32002fb297000402e800a4b79f0040
:10452000c6ff370000042000800f57003000320023
:1045300003003c000e00e000070032003d003700a1
:1045400000082000800f570011003200000c2000ee
:10455000800f570037003a001fa897003002be00b6
:104560002003be000800be000a01be00adf5070032
:10457000a4002000050020006033b800b0f507005b
:1045800004c3b30004424000c47f9f0029003700e9
:1045900095752200d5b79f000d58a30002003a0080
:1045a000a0762200d0b79f00140020000500200054
:1045b0006033b8008fa897008100e9000500330040
:1045c0000402d0008582d2000683d2008783d20005
:1045d000f9ff37000800be000a01be0091f5070090
:1045e0006f0060005fb197006240780010003700f4
:1045f00014002000050020006033b8008c01780012
:104600008301e900050033000402d0008582d20056
:104610000683d2008783d200f9ff37000800be006e
:104620000a01be007ff50700674060000043b0004c
:10463000c07f9f004f7a97000400fb00efb0970007
:1046400042020700e10f400003003200afb29700c2
:104650008502e800a5b79f001fa8970068005000da
:1046600090af9f008fa89700e480500081af9f001b
:1046700063065600d0ff2f003fb197000090b900ad
:10468000ffa197000080410063005000800f56009a
:10469000a4ff3a000d38a300100032001fa29700bb
:1046a0000400e0000d0034000006eb00efb09700be
:1046b0000002200025020700e10f40000300320045
:1046c000afb297008502e800a5b79f000c06e8008e
:1046d0001fa09700800f5600f4ff3a007fb19700ab
:1046e000b2407800f2b79f00c17f9f000104e00054
:1046f00014fb3a002fb097004f0778004f06be001a
:104700004f05be004f04be008f03b100000006003d
:10471000889fbe00000478008144780000fd2f00cf
:1047200000004400e90f500002003e000001780044
:104730000d00370008007800c4ee07000000e0001c
:104740000300320008007800c6ee0700000478007d
:1047500008007800caee07000000e0000700320001
:1047600090fa2f00000144000980fb00800f5100e7
:1047700002003d000280fb0001003700f00f200026
:104780004f04be0000000600881f7800809e800055
:104790003502070000047800c3ee07000000e000c7
:1047a000faff3a00e10f440003003200819e8000ce
:1047b00008007800600207004f047800000006003f
:1047c0008f04b000889fbe008a9fbe008c9fbe00f1
:1047d0008e1f780081bf9f0082067800809e88002f
:1047e0000040eb00e0ef9f00af0137008884fb0042
:1047f00009007800acee0700800078000000e000bf
:1048000002003200e0ff0700a701370050c2b300ea
:10481000804f540092013a000fbd970022c0b300b0
:10482000c2ef9f00d1ef9f000147780003003700df
:1048300041c0b300c1ef9f000fbd97000fb99700b3
:10484000b240780082bf9f008184fb0070c6b30035
:1048500080cf50001d003e0000c0e90080cf500016
:104860003a0031007940500080cf5000b60032004d
:104870000e003e006740500080cf500033003200f1
:1048800006003e000104e000280032007b4050009a
:1048900080cf5000fb003a002800370070c4b300fe
:1048a00080cf5000f7003a002800370030c6b30030
:1048b00080cf5000dd003200a9003e006b40500068
:1048c00080cf5000ef003a0011013700f0c6b3006e
:1048d00080cf5000a400320008003e006640500027
:1048e00080cf50009e0032000e003900634040002f
:1048f00080cf5000e3003a009300370050c7b30068
:1049000080cf5000960032006340400080cf5000be
:10491000ff0032006540500080cf5000d9003a00bf
:104920009300370020c0b3008b003700efe89700fa
:104930000104e000f3003a000f0137005fe997003f
:104940000241e800d2ef9f00bbff37008eff070057
:104950000e04e00001003a00bec3b300809e800058
:10496000c101070000017800d0022000800f510033
:1049700005003200c0fa2f000f004000d0b79f00a2
:104980000044eb0014003700c1fa2f008f80400074
:1049900082587800d1b79f00809e8000b201070046
:1049a000000178000e47e900f5ff37005fb097007f
:1049b00002587800d0b79f00e0022000800f51001d
:1049c00001003a000844e800809e8000a60107002c
:1049d000000178000e47e9000e04e00004003200f8
:1049e00000fd2f0000004100e90f5000efff3600ee
:1049f0000804e00003003a00e0022000800f5100ac
:104a0000eaff32000e04e0002d00320050062000c4
:104a1000800f51000300320050042000800f51002d
:104a200027003a005fb49700025c7800809e800007
:104a30008d010700000178008e44e90002003a0071
:104a4000d8b79f001e003700d0022000800f510011
:104a5000050032000080e900800f510002003200a2
:104a6000d8b79f0012003700024c7800dfb09700e3
:104a70008180e800d1b79f00809e80007a01070006
:104a8000000178008ec4e900070037005fb097008e
:104a900002587800d0b79f00809e80007201070006
:104aa000000178008944e9000904e00004003200b4
:104ab00000fd2f0000004100e90f5000f3ff360019
:104ac000dfb097008048eb00e10f410003003200a7
:104ad000819e800002007800970107005fb1970077
:104ae000c0fa2f000f004000800f510004003a0070
:104af000efe897000104e000f5003a009e0037005f
:104b00005fe997000204e000e7003a006fe89700d1
:104b10000040e800e0ef9f000d81e900cfe897003a
:104b2000e2cf5000d8003e008206780012047800e0
:104b30008000eb00c0fa2f000f0040009b0107002f
:104b4000008cbe00d80037004fe99700e24f5100bb
:104b500037ff320080c0b300c0ef9f0036ff370040
:104b6000acc0b3006b0037008cc0b30069003700e5
:104b700005ff0700dfe897000104e00002003a00ab
:104b80004d017800d2b79f00809e8000360107005b
:104b900000047800e10f4000530032008e4478009a
:104ba000120037000a85e8008abf9f001600370010
:104bb0000fb997001200fb00800f5400f9ff32007c
:104bc0005fe897000004e00003003a00dfb09700c0
:104bd00088587800d1b79f008944e9000a00320064
:104be000809e800020010700000478000800e80093
:104bf000e10f50000400360008007800aaed07001d
:104c00000000e000eaff32005fe997000204e000e4
:104c1000a5003a006fe897000040e800e0ef9f0031
:104c2000dfb09700824878009f0037005fe9970067
:104c30000204e00005003a006fe897000040e80039
:104c4000e0ef9f00cd007800d1b79f00809e8000ec
:104c500005010700e10f400087003200dfe8970000
:104c60000104e00003003a005fb1970000597800aa
:104c7000d2b79f000e47e9004240a9008a003400e5
:104c8000f2ff37000180fb0008fd2f000800400004
:104c9000e90f50000e003e000a0078005af80700a5
:104ca0000047780088007800030037000fb89700ad
:104cb0000000e80080bf9f000fb997001200fb00c2
:104cc00001004000e90f5000f8ff3600dafe37001f
:104cd000809e8000e4000700808f54007200320044
:104ce000e10f400005003a006fe897000004e00083
:104cf0007a0032008040780076003700819e800084
:104d00000d0107006fe997000280fb007400370077
:104d10000cc1b3009cfe0700809e8000d2000700fb
:104d2000000578000040eb0080ef9f00d0022000db
:104d3000800f550005003a00809e8000ca000700e1
:104d40000005780011c0b30081ef9f008c4078000f
:104d50000a0078006efe0700e14f40000b003a00a9
:104d6000819e80000a007800f30007006fe9970039
:104d70000204e000e3ff3a00809e800030009000d3
:104d80000048a3004e003200540037008e457800e2
:104d90006044b8000c81fb00030020000800be0046
:104da000f8ed07000004be008c4078000a0078008f
:104db00057fe07000080fb000100200008044000af
:104dc000898448008b45e90007003200809e8000fe
:104dd000a5000700000578008c4078004cfe070015
:104de000e14f4000ebff3a008c4078000a00780069
:104df00047fe0700e14f400003003a00819e80001b
:104e00000a007800cc0007000fe897000004e000db
:104e10000200320060041400e0841c00dfe8970008
:104e20000104e00020003a006fe997000241e80029
:104e3000e2ef9f004fe89700e44f500003003a0074
:104e40004d0078000888be00170037000d81e9008a
:104e500082067800120078000808780012003700f7
:104e6000809e800080000700808f54000e0032007a
:104e7000e10f400014003a006fe997000204e000df
:104e800016003200a0ff3700820678001204780076
:104e90008000eb00c0fa2f000f004000b7010700b0
:104ea000009cbe000294be000fb89700304478000a
:104eb00080bf9f000804e0004cfe3a000400370069
:104ec0000000eb0006003700819e80009a0007007a
:104ed000efe897000180fb00010037000080eb0045
:104ee0004f0778004f06be004f05be004f04be00be
:104ef0008f04b100000006008001eb0002003700c3
:104f000061f079008301e800828f5100fcff3a00d4
:104f100000000600881f7800909e80000000e000de
:104f20000100320000000100e8392100080078008b
:104f3000f60207006c044400203c2100800f54005e
:104f4000faff3a004f04780000000600889fbe0078
:104f50000001780001047800b10090000118a3005e
:104f60003d0032000198a30003003a0018009000b1
:104f70000000e00038003a000190a00031049800e1
:104f800082047800f90fb200180090000000e000e1
:104f900002003a0028009000000c7800ea8f5400cc
:104fa00006003a00380090000078a30003003a00a1
:104fb00088007800d0002000e4ff070098009000ef
:104fc00058009000808f50000b0032000100e80074
:104fd000100498001800780009587800000c780038
:104fe00011c0b300603c210001487800ea8f5400f2
:104ff0000600320019003700880078000940780068
:10500000fa0207008004780014003700380090008e
:105010000088a3001100320018019000a800900041
:1050200048009000c6ec070098009000810f5000e7
:1050300004003200380090000003b30030049800f0
:105040008084eb000000eb00100498002800900022
:10505000000c7800010037008084eb000900780024
:105060004f04be0000000600881f7800000478008e
:10507000b00090000148a30007003a000108a30017
:10508000050032000198a3000800320010009000d3
:105090000000e00005003200380090000040a00051
:1050a000300498008080eb00200037000190a100c0
:1050b00031049800180090000000e0000600340061
:1050c0000000e9001004980018007800b080fb0090
:1050d000000c780006003700380090000068a3003c
:1050e000edff3a0008007800030307008000780015
:1050f000380090000078a3000c003a00fa8f5000ae
:1051000008003a00280090000000e000e2ff3200b2
:10511000180090000000e80010049800180ce90046
:10512000ddff3700ed8f5000e2ff32000100780014
:105130004f0478000000060080017800e10f400075
:1051400017003200310090000008a3001400320064
:105150000098a30012003a00210290000400e00031
:105160000f0032001101900051009000800f51009b
:105170000b00320011007800840f500002003a004a
:105180008008e800020037000200e8009000980064
:105190001100e9008008780003487800010037001a
:1051a0008081eb000300780000000600e6874700de
:1051b000889fbe008a9fbe008c9fbe008e1f780015
:1051c00000047800810678000100e000030032004e
:1051d000800e7800010037000804e8009844780049
:1051e0000900fb0030ec0700800078000000e000c0
:1051f000f9ff3a00d0c2b30080cf540003003a0058
:105200000804e8001bc0b30005003700b0c2b300bb
:1052100080cf540001003a000804e800814578007e
:105220000005eb000a0778006000b800f0b79f00a7
:1052300081bf9f000b48a30005003a00e0c2b30005
:10524000984f100002003a000b44a0001e003700e7
:10525000984478000900fb000cfd2f000c00400072
:10526000e90f50001a003e000b14a0000b00fb00d9
:10527000e90f5500110032000048a3000100320080
:105280000e07e9000a05e800a20020000300200044
:105290007fb097008fb89700baec07000cc14400ac
:1052a0000281fb00030020000000410081804900d2
:1052b000f0b79f0081bf9f00030037000048a300a4
:1052c00001003a000e07e8000804e800d9ff3700a3
:1052d00050c6b30080cf5400040032000002eb003f
:1052e00050c4b30080cf540032003a008801e80077
:1052f00093407800d0c2b30080cf500002003a0043
:105300000b34a00003003700b0c2b30080cf5000c0
:1053100003003a008881e800010037008301e800bb
:105320009340780006c3b30086cf5000fbff3200e5
:105330000100fb0005fd2f0005004000e90f5000b3
:1053400003003600030478000002eb00160037006b
:1053500006c050000082fb000304e80018417800fa
:105360000200fb0005004000e90f50000e003e0067
:105370006a20b900064151000281fb000002410091
:105380000384e800984078000100fb00050040001d
:10539000e90f500004003e006a21b90006c0500029
:1053a0000080fb00020240000b38a3000100320025
:1053b0000402ea00040547000d00e000030032008b
:1053c0000b18a30001003200880e78007fb0970010
:1053d0008fb8970066ee07000004be000006be000e
:1053e0006011b800a0ee07006011b8000000e000f6
:1053f0005900320030f82f00800f550003003d00a7
:1054000020022000704a8800530037000008200066
:10541000800f55000a00340020022000704a8800e6
:105420000b08a300030032000200200003f82f0045
:10543000490037000200200003f82700460037002b
:105440000a00e0001c003d000a05ea0006003700e3
:10545000922f2000530125000800be00e5ec070054
:105460000004be006a055500e90f5500f8ff3c0036
:105470000006eb00060037000200200003122400a3
:105480000800be00dbec07000004be000c06e800cc
:105490008a0f5600f8ff3a000806be0002002000fe
:1054a000030820000800be006fee07000000e000c7
:1054b00025003d001c0037000a00e00007003c000a
:1054c00021003700922f2000530125000800be0064
:1054d00094ec07000004be006a055500e94f550032
:1054e000f8ff3e000006eb00060037000200200037
:1054f000031224000800be008aec07000004be006e
:105500000c06e8008a0f5600f8ff3a000806be00b5
:10551000f2ff2f00f3f727000800be001fec070082
:105520000000e000080034000b08a3000300320074
:1055300002002000030828000700370002002000b6
:1055400003082000040037000b08a300010032000c
:105550000df0a2000c01be000200be004f07780053
:105560004f06be004f05be004f04be006f00b100e5
:10557000000006008000eb000cff3700f0874700ba
:10558000889fbe008a9fbe008c9fbe008e1f780041
:105590000006780081bf9f000100e0000300320098
:1055a00080087800010037000c06e8001c447800f1
:1055b0000800fb003ceb0700800078000000e000e2
:1055c000f9ff3a00d0c2b300804f540003003a0004
:1055d0000c06e8001ec0b30005003700b0c2b300df
:1055e000804f540001003a000c06e80001477800a3
:1055f0000000eb00a0b79f00b0b79f006000b800ac
:105600006011b800c0b79f00d1b79f00e2b79f00fc
:10561000f3b79f000e48a30005003a00e0c2b300b4
:105620009c4f100002003a000e44a00030003700ea
:105630009c4678000d00fb000003b100e90f50000c
:105640002d003e000e14a0000e00fb002fb19700ad
:10565000f20f5100210032000048a3000300320085
:10566000bfb197008301e900b3b79f002fb0970047
:105670000000e800a0b79f006022b80006002000ec
:10568000470224004fb09700dfb097006fb197003a
:10569000ffb19700f4f107000004be000205be0050
:1056a00001cdb30001c046000080fb00cf80de00ca
:1056b000fff307000002be000203be000800be00a8
:1056c0000a01be00b9f20700c0b79f00d1b79f0022
:1056d000e2b79f00f3b79f00050037000048a30022
:1056e00003003a003fb197000201e800b2b79f0003
:1056f0000c06e800c7ff370050c6b30080cf560045
:10570000040032000002eb0050c4b30080cf56000a
:1057100032003a008c01e80093407800d0c2b30018
:1057200080cf500002003a000e34a0000300370082
:10573000b0c2b30080cf500003003a008c81e80073
:10574000010037008301e8009340780006c3b300ee
:1057500086cf5000fbff32000100fb0005fd2f004b
:1057600005004000e90f50000300360003067800f2
:105770000002eb001600370006c050000082fb005c
:105780000306e8001c4178000200fb000500400011
:10579000e90f50000e003e006a20b900064151009a
:1057a0000281fb00000241000386e8009c40780073
:1057b0000100fb0005004000e90f500004003e001e
:1057c0006a21b90006c050000080fb0002024000c0
:1057d0000e38a300010032000402ea00bfb19700b6
:1057e000848641000fb897000000e00003003200fb
:1057f0000e18a300010032000c0878004fb097008b
:10580000dfb097006fb19700ffb197000004be00b2
:105810000205be006022b8006033b80026f207001f
:105820006022b8006033b8000000e000ad00320034
:1058300030c02f00808f560003003d002002200062
:10584000704a8800a700370000402000808f560073
:105850000e00340020022000704a88000e08a300c9
:1058600005003200f4ff2f00f5ff2f00f6ff2f0098
:10587000f7fe2f009b003700f4ff2f00f5ff2f00ed
:10588000f6ff2f00f7fe2700960037000d00e0001e
:1058900042003d000d04ea000e003700d4372c0012
:1058a00045592200d69a2400274b25004fb0970077
:1058b000dfb097006fb19700ffb19700e9f20700e2
:1058c000c0b79f00d1b79f00e2b79f00f3b79f001a
:1058d0004806b10030062000800f5400efff3c0066
:1058e0000e0037000400200005002200f6052a0003
:1058f000272024004fb09700dfb097006fb19700ca
:10590000ffb19700d7f20700c0b79f00d1b79f0043
:10591000e2b79f00f3b79f006a045400e90f5400f8
:10592000f0ff3c008004eb000d0037006022b8005f
:1059300006002000470224004fb09700dfb0970018
:105940006fb19700ffb19700c6f20700c0b79f0084
:10595000d1b79f00e2b79f00f3b79f008904e8002a
:10596000888f5400f1ff3a004fb09700dfb09700e6
:105970006fb19700ffb197000004be000205be00a2
:105980006022b8000600200007012000caf10700cd
:105990000000e0004e003d00430037000d00e00035
:1059a0000f003c004a003700d4372c004559220034
:1059b000d69a2400274b25004fb09700dfb0970000
:1059c0006fb19700ffb1970027f10700c0b79f00a4
:1059d000d1b79f00e2b79f00f3b79f004d06b1001b
:1059e00030062000808f5600efff3c000e0037008d
:1059f0000400200005002200f6052a0027202400cc
:105a00004fb09700dfb097006fb19700ffb19700dc
:105a100015f10700c0b79f00d1b79f00e2b79f0004
:105a2000f3b79f00ea865600e9cf5600f0ff3e002c
:105a30000004eb000d0037006022b80006002000d3
:105a4000470224004fb09700dfb097006fb1970076
:105a5000ffb1970004f10700c0b79f00d1b79f00c6
:105a6000e2b79f00f3b79f000804e8008d0f5400d1
:105a7000f1ff3a004fb09700dfb097006fb1970089
:105a8000ffb197000004be000205be00f4ff2f0026
:105a9000f5ff2f00f6ff2f00f7fe2700bef10700ed
:105aa0000000e0000a0034000e08a30004003200e9
:105ab0006022b80006002000070128000900370016
:105ac0006022b80006002000070120000500370012
:105ad0000e08a300010032000bf0a2000802be0075
:105ae0000a03be000400be000601be004f07780096
:105af0004f06be004f05be004f04be000f01b100af
:105b0000000006008000eb009cfe3700889fbe006e
:105b10008a1f780000047800300090006300600065
:105b20002400320008007800c1000700380590000a
:105b300080ef2f00000065003004980028009000de
:105b40000000e00004003200e804650002003a00b2
:105b5000f000070029049800480090002fea070091
:105b6000e10f400013003200b80090000102b200c3
:105b700010003a000ac8a30018003200b09e80004e
:105b80000000e00015003200000178008104780078
:105b9000012a200012289000880f500007003200d0
:105ba0004205b0004905b000818f54000b0032005f
:105bb000f8ff37000080eb00090037000200780092
:105bc0001fea0700b09e8000090040008000eb0043
:105bd0001128980001007800010037000000eb0058
:105be0004f0578004f04be00000006000200fa00d6
:105bf000889fbe00a0ff9f0001047800b1009000c4
:105c0000810478000904b200020032000000fb00a9
:105c1000360037000118a30005003a000103b30065
:105c200031049800190498000080eb002f00370021
:105c3000580090000000e00006003a004800900084
:105c400012002000e6805700bde907001904980003
:105c500024003700280090000000e00008003a000f
:105c6000203c210020049800000c78002000200037
:105c700050049800100498000130a00031049800ee
:105c800018019000a800900048009000ace90700bf
:105c900028009000000c78000080eb0010049800b1
:105ca00018007800aff8970001587800000c7800d1
:105cb0002ff89700ea4f50000a003a003800900091
:105cc0000088a3000700320018019000a80090008f
